:020000040800F2
:10000000FCFF0020F5270000192800001928000037
:1000100019280000192800001928000019280000DC
:1000200019280000192800001928000019280000CC
:1000300019280000192800001928000019280000BC
:1000400019280000192800001928000019280000AC
:10005000192800001928000019280000192800009C
:10006000192800001928000019280000192800008C
:10007000192800001928000019280000192800007C
:10008000192800001928000019280000192800006C
:10009000192800001928000019280000192800005C
:1000A000192800001928000019280000192800004C
:1000B00091260000192800001928000019280000C6
:1000C000192800001928000019280000192800002C
:1000D0001928000019280000192800006D260000CA
:1000E000192800001928000019280000192800000C
:1000F00019280000192800001928000019280000FC
:1001000019280000192800001928000019280000EB
:1001100019280000192800001928000019280000DB
:1001200019280000192800001928000019280000CB
:1001300019280000192800001928000019280000BB
:1001400019280000192800001928000019280000AB
:1001500083B0CDF800E000F0FF031A09104603F069
:100160000F02134614E0194A02921FE0184A029245
:100170001CE0184A029219E0174A029216E0174A48
:10018000029213E0164A029210E0164A02920DE023
:100190000028E8D00128E9D00228EAD00328EBD0D3
:1001A0000428ECD00528EDD00628EED0012212B2AA
:1001B0009A40ADF8042002980A46BDF8041000F0F9
:1001C000AFFADDF800E003B0704700BF000801405F
:1001D000000C0140001001400014014000180140D3
:1001E000001C01400020014081B00248006801B0BD
:1001F000704700BF9401002081B0194900EA010155
:10020000084600220EE0042022E0082020E0102012
:100210001EE020201CE040201AE0802018E040F280
:10022000001015E00F498842EDD00F498842ECD00C
:100230000E498842EBD00E498842EAD00D498842E7
:10024000E9D00D498842E8D00C498842E7D01046F1
:100250000B49096841EA000209490A6001B0704788
:1002600000FCFFFF00080140000C014000100140AD
:100270000014014000180140001C01400020014012
:100280001810024082B0CDF800E0034619460191F3
:10029000FFF7AAFF40F2E83100FB01F201990A6082
:1002A0001F490978C1F30311C8B21E49091808781B
:1002B000C0B21A1D1968C140116019490988C1F3FB
:1002C000022188B2174909180878C0B203F208025F
:1002D000191D0968C140116011490988C1F3C22183
:1002E00088B2104909180878C0B203F20C02191D2F
:1002F0000968C14011600A490988C1F3813188B297
:10030000094909180978C8B203F2100203F20C0176
:100310000968B1FBF0F11160DDF800E002B0704750
:10032000041002401C2B0000AC10000081B00168DA
:10033000C1F3801001B0704781B0014640F2000364
:1003400040F2000082B20846C118097821B15B1C56
:100350009BB2521C92B2F7E790B201B07047FFFF18
:1003600081B093B20A46014640F2000440F2000018
:100370001FFA80F810469AB2EAB10B191D78EEB256
:10038000631C9FB200EB08031C785FFA84F908F144
:1003900001081FFA88F8A54207D04E4502D2FF2077
:1003A00040B201E0012040B207E006B903E0521E6E
:1003B00092B2BCB2E0E7002040B201B07047FFFF4C
:1003C00081B0CDF800E0012252B23E490A6000F24D
:1003D00068010B686FF0006103EA0102144603F044
:1003E0000061C90E0B4602F00041B1F1004F02D18D
:1003F00035490A6801E035490A6804F47021090C9E
:100400000E464FF6FF7104EA01010D4604F4401157
:10041000B1F5401F0DD16FF0706102EA01010E4687
:100420002A490A686FF070610A4028490A6032461A
:1004300016E004F48011B1F5801F09D14FF00301DB
:10044000B140C94302EA010141F070610A4607E088
:10045000610D090105FA01F1C9430A4042F07062D9
:100460002BB1610D090105FA01F10A43FFE704F020
:100470000041B1F1004F02D113490A6001E0134974
:100480000A6040F2000A81464FEA8A0109EB010145
:100490000968B1F1FF3F10D009F134014FEA8A0336
:1004A000C91809680A4609EB03010968084611469C
:1004B000FFF74EFE0AF1010AE6E7DDF800E001B0C1
:1004C000704700BF000342421C000140040001408D
:1004D00081B00268C2F3401101B9FAE7011D096851
:1004E00088B201B07047FFFF81B00168C1F34010CE
:1004F00001B0704781B0CDF800E00348FFF7E8FF96
:10050000DDF800E001B07047004C004081B00446C7
:1005100040F20000ADF8002082B20846BDF800109D
:1005200059B183181B782370237813B1521C92B2EF
:10053000FFE7641C491E89B2F2E701B07047FFFF74
:1005400081B0CDF800E00348FFF7CEFFDDF800E012
:1005500001B07047004C004081B0CDF800E0044687
:100560002046FFF7E9FEC5B2204601F031F801242C
:10057000EBB20D4909888C4211D222010B4989182E
:100580000988994208D1220108498918091D09687A
:10059000814201D1A0B203E0641CA4B2E9E70020CB
:1005A000DDF800E001B07047CC020020D00200204E
:1005B00081B0ADF800100146BDF800000B68C3F330
:1005C000C01202B9FAE70A1D106001B07047FFFFC0
:1005D00081B0CDF800E00348FFF786FFDDF800E0CA
:1005E00001B070470050004081B0CDF800E00348F2
:1005F000FFF79CFEDDF800E001B0704700500040BE
:1006000081B0CDF800E00348FFF790FEDDF800E090
:1006100001B07047004C004085B0CDF800E0824644
:1006200002918DF80C208DF810305046FFF784FEB3
:100630008DF81100C4B2102C02D910248DF811408D
:10064000012751469DF80C40A7423FD2032404FBEA
:1006500007F5029C641901912046FFF76DFE019990
:10066000C2B240F2000C8A46F9B25FFA8CFB5FFA24
:1006700082FC9DF81140A34523D20AEB0B0603240C
:1006800004FB01F5029C64198DF804105FFA8CF2EA
:1006900031462046FFF764FE9DF8041058B99DF8D6
:1006A00010400CB9C8B212E09DF81040012C02D1E4
:1006B0005FFA8BF00BE00BF10104E0B25FFA80FB14
:1006C000D7E74C1CE5B25146EFB2BBE70020DDF89E
:1006D00000E005B07047FFFF81B0CDF800E00348AF
:1006E000FFF7F6FEDDF800E001B070470050004073
:1006F00081B0CDF800E00348FFF718FEDDF800E018
:1007000001B070470048004081B0CDF800E00348D8
:10071000FFF70CFEDDF800E001B070470038014043
:1007200081B0CDF800E08CB21546774B00EA0303A8
:100730001E461846FFF760FDB4F1FF0F0CD1734B56
:100740009D4203D14FF033333360D9E0422D03D1C2
:100750004FF044333360D3E04FF6FF739C4214D123
:100760006A4B9D4207D14FF033333360341D4FF055
:1007700033332360C4E0422D07D14FF0443333605C
:10078000341D4FF044332360BAE00021002005F00F
:1007900001030BB100211DE005F0020333B105F4A4
:1007A000C0730BB1082100E0042113E005F004033D
:1007B00033B105F020030BB1042100E0002109E072
:1007C00005F0080333B105F020030BB10C2100E064
:1007D0000821FFE74E4B05EA03030BB1032009E0B4
:1007E00005F400730BB1022004E005F480630BB143
:1007F0000120FFE705F00C030BB10143FFE704F014
:10080000FF039BB2002B3BD0376800201FFA84F80F
:1008100032462E4608282CD24FF0010303FA00F48A
:1008200008EA0403A34222D185004FF00F03AB4036
:10083000DB4307EA030401FA05F344EA03031D4618
:1008400006F48173B3F5817F05D102F214044FF0F1
:1008500001038340236006F08203822B05D102F25C
:1008600010044FF00103834023602F46FFE7401C34
:10087000D0E717601FFA88F00F463146164602E0AF
:100880000F462946A0B2B0F1FF0F39D9331DD3F876
:1008900000800022082A30D202F208044FF001033F
:1008A00003FA04F400EA0403A34224D195004FF0B4
:1008B0000F03AB40DB4308EA030807FA05F348EAF5
:1008C000030801F48173B3F5817F07D106F21405A3
:1008D00002F208044FF00103A3402B6001F08203F1
:1008E000822B07D106F2100502F208044FF0010333
:1008F000A3402B60FFE7521CCCE7331DC3F80080F8
:10090000DDF800E001B0704700FCFFFF14000800B4
:100910000008080081B0CDF800E00348FFF706FDAD
:10092000DDF800E001B070470044004081B0CDF830
:1009300000E00348FFF7CCFDDDF800E001B07047B0
:100940000044004081B0CDF800E00348FFF7CCFD43
:10095000DDF800E001B070470044004081B0CDF800
:1009600000E00348FFF7B4FDDDF800E001B0704798
:100970000038014081B0CDF800E00348FFF7B4FD36
:10098000DDF800E001B070470048004081B0CDF8CC
:1009900000E00348FFF7A8FDDDF800E001B0704774
:1009A0000038014081B0CDF800E00348FFF790FD2A
:1009B000DDF800E001B070470048004089B0CDF894
:1009C00000E0834698B28C46BDF824100A9E04AC21
:1009D000ADF80410ADF808002046FFF753FCBDF851
:1009E0000800BDF80410644CA34512D101256DB276
:1009F000624C2560624D634C2560634D634C2560FD
:100A0000634D644C2560644D644C2560079C0394E1
:100A100056E0634CA34512D101256DB2614C2560AF
:100A2000614D584C2560614D584C2560604D594CC6
:100A30002560604D594C2560069C039440E05E4C57
:100A4000A34512D101256DB25C4C25605C4D4D4C27
:100A500025605C4D4D4C25605B4D4E4C25605B4DDB
:100A60004E4C2560069C03942AE0594CA34512D1B4
:100A700001256DB2574C2560574D424C2560574DAE
:100A8000424C2560564D434C2560564D434C2560E5
:100A9000069C039414E0544CA34511D101256DB27A
:100AA000524C2560524D374C2560524D374C2560D5
:100AB000514D384C2560514D384C2560069C0394AF
:100AC000ADF80410ADF808003046FFF779FCBDF82A
:100AD0000800BDF804100BF1100500242C600BF188
:100AE00010052C680C432C600BF10C0500242C60C5
:100AF00018B140F4806080B2FFE70BF10C052C6860
:100B000004432C600BF10C060125346865F34D3469
:100B100034600BF10C060125346865F3C3043460BE
:100B20000BF10C060125346865F3820434600BF187
:100B3000140500242C60039D192465434FEA8C049E
:100B4000B5FBF4F76424B7FBF4F4260135096424FB
:100B50006C433C1B240104F232056424B5FBF4F41D
:100B600004F00F0446EA04040BF10805A4B22C605B
:100B7000DDF800E009B07047003801403803424218
:100B8000FD0F0000980100205D0900009C0100207D
:100B90008D090000A001002009070000A401002029
:100BA00000440040C4034242E10F00002D09000050
:100BB000450900001509000000480040C8034242F2
:100BC00019100000A509000075090000F1060000D9
:100BD000004C0040CC03424251100000F5040000DC
:100BE000410500000106000000500040D0034242D1
:100BF00035100000D9060000D1050000E90500000D
:100C000089B0CDF800E0069007910DF1040B0BF1CF
:100C1000110ADFF8B0C001F00DFC002307222A49B9
:100C20000698FFF7F9FC8DF82000012307222649DA
:100C30000698FFF7F1FC8DF82100002306222349D6
:100C40000698FFF7E9FC8DF82200012306221F49D0
:100C50000698FFF7E1FCC1B208B9102000E0C8B265
:100C60009DF82120841A9DF82130069AD31801AAF4
:100C700019461046A2B2FFF749FC01AA1046FFF739
:100C80006BFCC1B2C2B21301114AD2180C32136804
:100C9000079A1360079A141D0B010D4AD2180832E7
:100CA00012682260079A02F208039DF820201A7049
:100CB000079A0832531C9DF822201A70DDF800E0D4
:100CC00009B07047F82A0000F80000200D0100204C
:100CD000D002002081B0CDF800E0044C2468A04789
:100CE000C0B2DDF800E001B0704700BFC4020020D0
:100CF00081B0CDF800E0044C2468A047C0B2DDF814
:100D000000E001B0704700BFC802002081B0009130
:100D1000014600980B461C465A1C15460346421CC9
:100D200010461A78227022780AB12B46F3E708465B
:100D300001B0704781B0FAB590EA02064CBF4FF09F
:100D400000464FF000064FEA00214FEA40031B0E19
:100D500012BF41F000414FF000002CE0FF2B26D0E5
:100D60004FEA02244FEA42052D0E12BF44F0004420
:100D70004FF000001FE0FF2D19D05B19A1FB0454B8
:100D8000002C5CBF64005B1E803424BF5B1C6408C5
:100D90007E3BDCBF4FF000000DE0FF2B07D24FEA97
:100DA000142030F4000040EAC350304303E0FF2732
:100DB000FF0546EA0700BDE8FA4001B07047FFFFB3
:100DC00081B0CDF800E0044A89B2FFF7A9FCDDF854
:100DD00000E001B0704700BF1400080081B0CDF8FA
:100DE00000E0019D2C4610B408B493B28AB20146CB
:100DF0000348FFF7E3FD02B0DDF800E001B0704703
:100E00000048004081B0302803D3392801D801219F
:100E100000E00021C8B201B07047FFFF81B02DE9AA
:100E2000FA414FEA02244FEA42052D0E04D1002C6C
:100E300018BF4FF000006CE044F00044FF2D5FD07D
:100E40004FEA9404002A48BF64424FEA00214FEA67
:100E500040031B0E05D1002914BF4FF000001046BF
:100E600057E041F00041FF2B4BD04FEA91010028A1
:100E700048BF49425E1B41BF0F4621463C46764271
:100E800048BF2B46192E47BF44FA06F7C9194FF041
:100E9000000803E0C6F11C0704FA07F8002904BFA4
:100EA0004FF0000035E046BF49424FF001074FF0D8
:100EB0000007A3F101034900FBD511F080040DD018
:100EC00001F0200548EA0508803128BF5B1C01F0CD
:100ED000400458EA040808BF21F480719B1CDCBF61
:100EE0004FF0000015E0FF2B0DD221F0FF014FEA7B
:100EF00041014FEA512040EAC35040EAC77008E080
:100F000010464FEAD0774FEAC777FF204FEAC0502C
:100F10003843BDE8FA4101B07047FFFF81B006B524
:100F20004FEA40024FEA12627F3A44BF4FF000009E
:100F300011E0D2F11F0209D94FEA002141F000412E
:100F4000D14000284CBF4842084604E000284FF03A
:100F5000004058BF401EBDE8064001B07047FFFF8B
:100F600081B0CDF800E04FF0420289B2FFF7D8FB24
:100F7000DDF800E001B0704781B0002808BF19E03B
:100F800006B554BF0146D0F100014FF09E0202D4D5
:100F9000521E4900FCD580312CBF521C49004FEA3B
:100FA000512141EAC25100284CBF41F0004008469F
:100FB000BDE8064001B0704781B0CDF800E0019D6A
:100FC0002C4610B408B493B28AB201460348FFF726
:100FD000F5FC02B0DDF800E001B0704700440040CD
:100FE00081B0CDF800E081B20348FFF7E1FADDF807
:100FF00000E001B0704700BF0044004081B0CDF870
:1010000000E081B20348FFF7D3FADDF800E001B059
:10101000704700BF0038014081B0CDF800E081B2D8
:101020000348FFF7C5FADDF800E001B0704700BFE4
:101030000048004081B0CDF800E081B20348FFF7DE
:10104000B7FADDF800E001B0704700BF0050004083
:1010500081B0CDF800E081B20348FFF7A9FADDF8CE
:1010600000E001B0704700BF004C004081B0CDF8F7
:1010700000E0034C2468A047DDF800E001B07047B1
:10108000A801002081B0CDF800E0019D2C4610B4ED
:1010900008B493B28AB201460348FFF78FFC02B04E
:1010A000DDF800E001B07047003801400204060896
:1010B00081B044F67F77C0F212077F1EFDD100BFDA
:1010C00000BF00BF00BF00BF01B0704782B0CDF8C5
:1010D00000E00190022101F065F801990348FFF753
:1010E00015FEDDF800E002B0704700BF33000020BD
:1010F00081B041F6FF27C0F2B7077F1EFDD100BFC8
:1011000000BF00BF00BF00BF01B0704781B00249FF
:10111000086001B0704700BF9C81214281B0024944
:10112000086001B0704700BF9881224281B0024937
:10113000086001B0704700BF9481224281B002492B
:10114000086001B0704700BF9881214281B00A4613
:1011500081B200208DB21146052805D20B1820223D
:101160001A70401CC0B2F7E70B1800221A70401E1C
:10117000C0B20C180A23B5FBF3F203FB125292B271
:10118000303222700A22B5FBF2F292B295B202B965
:1011900002E0401EC0B2ECE701B0704781B0CDF86C
:1011A00000E002B5002802D5FFF7B8FE13E04FEAD1
:1011B00040014FEA11617F393CBF4FF000000AE067
:1011C000D1F11F0105D34FEA002040F00040C84094
:1011D00001E00020401EBDE80240DDF800E001B063
:1011E0007047FFFF84B0CDF800E04FF0000340F2FD
:1011F00000090FFA89F9024600F1010A1178ADF8E9
:101200000810BDF90810B1B1BDF90800FFF7FAFDEB
:1012100088B15A481A46FFF78DFD0390BDF90810B2
:10122000303909B208B2FFF7A7FE039AFFF7F6FDBF
:1012300003465046DFE7BDF908102E2929D1504654
:101240000246411C8A461178ADF80810BDF9081015
:10125000D1B1BDF90800FFF7D5FDA8B147481A463E
:10126000FFF768FD0390BDF90810303909B208B2E4
:10127000FFF782FE039AFFF7D1FD0346A9F10109AA
:101280000FFA89F95046DBE70FFA89F218465546FE
:1012900003E0554618460FFA89F2BDF90810652992
:1012A00007D0BDF90810452903D00FFA82F802468D
:1012B00047E040F2010424B240F200031BB2297857
:1012C000ADF808106D1CBDF908102B2904D1297840
:1012D000ADF808106E1C13E0BDF908102D290DD1D2
:1012E0002978ADF80810691C0C464FF6FF7109B259
:1012F000ADF804102146BDF9044000E029460E4631
:101300001FB2034615B2BDF90800FFF77BFD80B19F
:101310000A2109B207FB01F212B2BDF908103039F7
:1013200009B2511808B23178ADF80810761C07B22E
:10133000E9E707FB04F109B205EB01080FFA88F8A9
:101340001A46B8F1000F08DD0C48FFF7F3FC02461F
:10135000A8F101080FFA88F8F3E7B8F1000F08DAEE
:101360000748FFF7E7FC024608F101080FFA88F882
:10137000F3E71046DDF800E004B0704700002041BC
:10138000CDCCCC3D83B0CDF800E08DF808100278CC
:101390004AB102780190D0B2FFF768FE0198421C72
:1013A00011460846F3E79DF80800FFF75FFE0A20A4
:1013B000FFF75CFEDDF800E003B0704781B0ADF8E8
:1013C00000100146BDF900000B78C2B2934207D06D
:1013D0000B46491C1A78002A01D1002001E0F3E7EE
:1013E000084601B07047FFFF81B00A46014640F24F
:1013F000000440F2000086B21046A3B2621C95B20F
:10140000CC18B3B2721C96B2C2181278227022782D
:101410000AB1ACB2F1E701B07047FFFF81B0CDF87F
:1014200000E00020002804D0FFF762FC08B1FFF7BD
:1014300051FC52480078002800F03A80504800786B
:1014400010B1002000F0DEF800214E4801700021AC
:101450004D4801704D480078022805D14C494D484F
:101460004D4C2468A0470BE04B494A48FFF7C8FBA6
:1014700002214648017046494648474C2468A04727
:1014800000213E480170002144480180002141486C
:101490000170002142480170002142480170002182
:1014A000414801703648007810B1012000F0AAF8D8
:1014B0003C48007800282CD03148007810B100203A
:1014C00000F0A0F800212F48017000212E48017083
:1014D00031493048FFF794FB00212C4801702C491A
:1014E0002C482D4C2468A04700212C480180002165
:1014F0002848017000212A48017000212948017004
:101500000021294801701E48007810B1012000F028
:1015100079F82348007800282CD01948007810B1B9
:10152000002000F06FF800211648017000211648D5
:10153000017019491748FFF763FB01211348017037
:1015400013491448144C2468A04700211348018013
:10155000002110480170002111480170002111483C
:1015600001700021104801700548007810B1012079
:1015700000F048F8DDF800E001B07047BF0200203D
:10158000D3050020D2050020BE020020BA020020B0
:10159000B8020020D2040020B0020020D0040020B5
:1015A000BC020020BD0200201F01002081B0D3B288
:1015B000024608B21146DDB2ECB26B1EDDB21CB1C0
:1015C000C3B20B70491CF7E7104601B07047FFFF2C
:1015D00081B000214FF005040346C8B21A46591CD9
:1015E0000B461178CAB24AB100F00701C9B202FA3B
:1015F00001F189B26418401CC0B2EFE7204601B087
:101600007047FFFF81B001B07047FFFF81B000F26B
:1016100030011C310A6804490A60011D0A68034947
:101620000A6001B0704700BFD8050020AC0100205F
:1016300081B0CDF800E0A9E0012905D140F2100108
:101640006548FFF78DFC04E040F210016248FFF7A7
:10165000B7FBBBE0012905D140F204015F48FFF769
:101660007FFC04E040F204015C48FFF7A9FBADE019
:10167000012905D142F200015948FFF771FC04E04D
:1016800042F200015648FFF79BFB9FE0012905D17C
:1016900040F200415148FFF763FC04E040F2004192
:1016A0004E48FFF78DFB91E0012905D140F600017E
:1016B0004A48FFF755FC04E040F600014748FFF7B1
:1016C0007FFB83E0012905D141F200014348FFF788
:1016D00047FC04E041F200014048FFF771FB75E070
:1016E000012905D140F201013B48FFF739FC04E034
:1016F00040F201013848FFF763FB67E0012905D19B
:1017000040F200413648FFF72BFC04E040F2004174
:101710003348FFF755FB59E0012905D140F200217C
:101720002F48FFF71DFC04E040F200212C48FFF792
:1017300047FB4BE0012905D140F200112848FFF793
:101740000FFC04E040F200112548FFF739FB3DE0B3
:10175000012905D140F240012248FFF701FC04E0D5
:1017600040F240011F48FFF72BFB2FE0012905D174
:1017700040F280011B48FFF7F3FB04E040F28001D8
:101780001848FFF71DFB21E0012020E000283FF46E
:1017900053AF01283FF45EAF02283FF469AF03283E
:1017A0003FF474AF04283FF47FAF05283FF48AAFBD
:1017B00006283FF495AF0728A0D00828ACD0092808
:1017C000B8D00A28C4D00B28D0D0DDE70020DDF83F
:1017D00000E001B0704700BF000801400010014068
:1017E00000140140000C014081B00249086001B0C2
:1017F000704700BFB481224281B00249086001B045
:10180000704700BFA801224281B00249086001B0C0
:10181000704700BF9001214281B00249086001B0C9
:10182000704700BF8801224281B0026806490A6001
:10183000011D0A6805490A6000F208010A680449A6
:101840000A6001B0704700BFA8010020C402002058
:10185000C802002081B0CDF800E0094902B440F28E
:10186000000340F2000240F20001FFF70BFC01B060
:10187000044A05490A600020DDF800E001B0704725
:10188000C0290000FD0F00009001002081B0CDF8BC
:1018900000E0094902B440F2000340F2000240F2C5
:1018A0000001FFF789FB01B0044A05490A600020E6
:1018B000DDF800E001B070472C2A0000E10F0000C5
:1018C0009001002081B0CDF800E0094902B440F257
:1018D000000340F2000240F20001FFF77FFA01B07E
:1018E000044A05490A600020DDF800E001B07047B5
:1018F00054290000191000009001002081B0CDF89B
:1019000000E0094902B440F2000340F2000240F254
:101910000001FFF751FB01B0044A05490A600020AD
:10192000DDF800E001B070472C2A0000E10F000054
:101930009001002081B0CDF800E00B4D00F20C01C9
:101940000C6800F208010B68011D0A68016808466E
:1019500091B29AB2A3B220B4FFF740FA01B00020CE
:10196000DDF800E001B070475429000081B0CDF8E7
:1019700000E0A9E0012905D140F220016548FFF708
:10198000EFFA04E040F220016248FFF719FABBE0E9
:10199000012905D140F208015F48FFF7E1FA04E0B0
:1019A00040F208015C48FFF70BFAADE0012905D1D0
:1019B00044F200015948FFF7D3FA04E044F2000171
:1019C0005648FFF7FDF99FE0012905D140F200419B
:1019D0005148FFF7C5FA04E040F200414E48FFF7D6
:1019E000EFF991E0012905D140F600014A48FFF7DF
:1019F000B7FA04E040F600014748FFF7E1F983E059
:101A0000012905D141F200014348FFF7A9FA04E09A
:101A100041F200014048FFF7D3F975E0012905D1F3
:101A200041F200013D48FFF79BFA04E041F200015A
:101A30003A48FFF7C5F967E0012905D140F60001F2
:101A40003648FFF78DFA04E040F600013348FFF70F
:101A5000B7F959E0012905D140F240012F48FFF7BD
:101A60007FFA04E040F240012C48FFF7A9F94BE06F
:101A7000012905D140F220012848FFF771FA04E05E
:101A800040F220012548FFF79BF93DE0012905D1EF
:101A900040F240012248FFF763FA04E040F24001BF
:101AA0001F48FFF78DF92FE0012905D140F2800191
:101AB0001B48FFF755FA04E040F280011848FFF791
:101AC0007FF921E0012020E000283FF453AF0128F6
:101AD0003FF45EAF02283FF469AF03283FF474AFD0
:101AE00004283FF47FAF05283FF48AAF06283FF46F
:101AF00095AF0728A0D00828ACD00928B8D00A286C
:101B0000C4D00B28D0D0DDE70020DDF800E001B024
:101B1000704700BF00080140001001400014014060
:101B2000000C014081B0CDF800E00178CCB2A0B249
:101B3000034C2468A0470020DDF800E001B07047A6
:101B40009001002081B0CDF800E00B4D00F20C01B7
:101B50000C6800F208010B68011D0A68016808465C
:101B600091B29AB2A3B220B4FFF726FA01B00020D6
:101B7000DDF800E001B070472C2A000081B0024976
:101B8000086001B0704700BFB881224281B00249AD
:101B9000086001B0704700BFA801224281B002492D
:101BA000086001B0704700BF9401214281B0024932
:101BB000086001B0704700BF8C01224281B0024929
:101BC000086001B0704700BFB081224281B0024975
:101BD000086001B0704700BFB081224281B0024965
:101BE000086001B0704700BFAC01224281B00249D9
:101BF000086001B0704700BFB001224281B00249C5
:101C0000086001B0704700BF9C81214281B0024949
:101C1000086001B0704700BFA481224281B0024930
:101C2000086001B0704700BF8001214281B00249C5
:101C3000086001B0704700BFA881224281B002490C
:101C4000086001B0704700BFB001224281B0024974
:101C5000086001B0704700BF9881214281B00249FD
:101C6000086001B0704700BFA081224281B00249E4
:101C7000086001B0704700BFAC01224281B0CDF8CE
:101C800000E011E00846FFF71DFE16E00846FFF7EA
:101C900035FE12E00846FFF7DDFD0EE00846FFF7CF
:101CA000F5FD0AE0012008E00028EBD00128EDD086
:101CB0002028EFD03028F1D0F4E7DDF800E001B0C3
:101CC0007047FFFF81B0CDF800E00E46002183B2DF
:101CD000002805DA0121404280B280B28FB201E0D3
:101CE00098B28FB23146FFF731FA06213446B8B2C6
:101CF000002908D963184A1E92B2A21812781A70E5
:101D0000491E89B2F4E72022227070B1002081B20E
:101D1000204642181278202A02D1491C89B2F8E7DD
:101D20004A1E92B283182D221A70DDF800E001B02D
:101D30007047FFFF81B0CDF800E009E00846FFF7EB
:101D4000F9FD0AE00846FFF7FDFE06E0012004E089
:101D50000028F3D00128F5D0F8E7DDF800E001B065
:101D60007047FFFF81B0CDF800E05FFA81F95FFABC
:101D700082FA0FE05FFA8AF15FFA89F0FFF758FC08
:101D80000DE05FFA8AF15FFA89F0FFF7EFFD06E0F8
:101D9000012004E00028EDD00128F2D0F8E7DDF8BA
:101DA00000E001B07047FFFF88B0CDF800E004907C
:101DB00005910DF1040B0BF10A0ADFF8B0C100F038
:101DC00039FB049C049A521C2C2109B21046FFF7DF
:101DD000F5FA031B01AA214610469AB2FEF796FBBC
:101DE000059A079201AA1046FFF7FCF9FFF7D6F90A
:101DF00080B2079A108001AA002109B210460A2277
:101E0000FFF7D4FB2C2109B20498FFF7D7FA054657
:101E1000421C2C2109B21046FFF7D0FA8346AC1CB5
:101E2000031B01AA214610469AB2FEF76FFB059AE2
:101E3000921C079201AA1046FFF7D4F9FFF7AEF9FA
:101E400080B2079A108001AA002109B210460A2226
:101E5000FFF7ACFB5D460BF101022C2109B21046E5
:101E6000FFF7ACFA8346AC1C031B01AA21461046BF
:101E70009AB2FEF74BFB059A121D079201AA104673
:101E8000FFF7B0F9FFF78AF980B2079A108001AA2C
:101E9000002109B210460A22FFF788FB5D460BF1CC
:101EA00001022C2109B21046FFF788FA8346AC1CC8
:101EB000031B01AA214610469AB2FEF727FB059A9A
:101EC000921D079201AA1046FFF78CF9FFF766F9F9
:101ED00080B2079A108001AA002109B210460A2296
:101EE000FFF764FB5D460BF101022C2109B210469D
:101EF000FFF764FA8346AC1C031B01AA2146104677
:101F00009AB2FEF703FB059A0832079201AA10461F
:101F1000FFF768F9FFF742F980B2079A108001AA2B
:101F2000002109B210460A22FFF740FB5D460BF183
:101F300001024F2109B21046FFF740FAAC1C031B07
:101F400001AA214610469AB2FEF7E0FA059A0A3233
:101F5000079201AA1046FFF745F9FFF71FF980B273
:101F6000079A1080DDF800E008B07047382B0000B9
:101F700081B0CDF800E003460846FFF755FC18464F
:101F8000FFF744FBDDF800E001B0704781B0CDF809
:101F900000E0012149B20E480160002149B20D481C
:101FA000016001210C48016048F69F410B48016027
:101FB00040F22C0000F02EF9012149B208480160DE
:101FC0000448016000F062F9DDF800E001B07047FC
:101FD0008003424200000042280000402C000040E4
:101FE0008001004281B0CDF800E00023274A137041
:101FF0000023274A13700023264A13700023264A21
:102000001370264A1060264A1160264A1046FFF7D0
:10201000DFFA254A10600023244A13800123244A52
:1020200013800023234A13800023234A13700023C4
:10203000194A13700023174A13700123134A1370AF
:102040000023154A13700023124A137000230F4A0D
:1020500013700023194A13600123194A13700023D7
:10206000174A13700023174A13600123164A13708E
:102070000023154A1370154A127812B10120FFF798
:10208000C1FADDF800E001B0704700BF1F01002079
:10209000BF020020BD020020BC020020DC020020A4
:1020A000D8020020F7000020D4020020D002002037
:1020B000CC020020D0040020D2040020C002002066
:1020C000BE020020D4050020D2050020D305002048
:1020D00082B0CDF800E0019001991A48FFF784F929
:1020E0001949097811B1FFF799F9F9E717490198EA
:1020F000FEF786FD0D210198FFF744F90021012923
:1021000007D0042212490A7012490E480F4C246865
:10211000A047002210490A70002210490A700122CB
:1021200009490A7000220E490A6001220D490A700D
:102130000549097811B1FFF771F9F9E7DDF800E019
:1021400002B07047B00100201F010020B002002043
:10215000BA020020B8020020BC020020BD0200200C
:10216000C0020020BE02002081B0CDF800E00120B6
:102170000B4C2468A047FEF79BFF0020084C246806
:10218000A047FEF795FF0120054C2468A047FEF705
:10219000AFFFFEF7ADFFDDF800E001B0704700BF14
:1021A000AC01002083B0CDF800E0024610460D22BD
:1021B0008DF808200A228DF809201FE0FFF7B2FCF5
:1021C00023E002782AB10190FFF7ACFC0198401C93
:1021D000F7E71AE002782AB10190FFF7A3FC019813
:1021E000401CF7E702AA1046FFF79CFC0DF109021C
:1021F0001046FFF797FC08E0062007E00029DDD035
:102200000129DED00229E5D0F6E70020DDF800E064
:1022100003B0704781B0042806D11949096841F418
:10222000803217490A6028E0052806D11449096858
:1022300041F4003212490A601FE0062806D1104915
:10224000096841F480220E490A6016E00F2806D181
:102250000C49096841F002020A490A600DE01028A1
:102260000BD3A0F2100461098A0007498B1804F00F
:102270001F024FF001019140196001B0704700BF8B
:1022800024ED00E010E000E000E100E081B0EFF3B9
:10229000108C604662B601B07047FFFF81B01548F0
:1022A000006840F0010113480160134913480160C0
:1022B00010480168124801400E4801600D4801684D
:1022C0006FF4802001400B4801600C4801686FF4F6
:1022D000FE00014009480160064801686FF0A05007
:1022E0000140044801604FF000010648016001B060
:1022F000704700BF001002400000FFF004100240D1
:10230000FFFFF6FE2C10024081B0002218490A702F
:10231000002218490A70012217490A700022174941
:102320000A60012216490A7018B91649098801B9CC
:1023300009E014490A881449891808701149098864
:102340004A1C10490A800F490A8810498A4202D360
:1023500001220F490A700B490988B1F1FF0F04D11E
:10236000084909884A1E07490A8001B0704700BF22
:10237000BC020020BD0200201F010020D405002067
:10238000D2050020D0040020D2040020C0000000AC
:10239000BF02002081B01D480078C8B11C48026807
:1023A0001B480068411C1A4801601A4800688242B4
:1023B0000ED900211548017000211548016016480A
:1023C0000188164841180020087001211448017046
:1023D00014480078C0B11448026813480068411CD2
:1023E00011480160114882420ED900210D48017048
:1023F00000210D4801600848018808484118002064
:10240000087001210A48017001B07047BE02002027
:10241000C0020020B4020020D0040020D20400201A
:10242000BC020020D2050020D405002005000000D9
:10243000BD02002081B01CF8019B0BF8019BBBEB97
:102440000A0FF8D101B0704781B0CDF800E0FFF776
:102450009DFD1C491C48FFF78BFD012149B21B481B
:10246000016040F23700FFF7D5FEFFF70FFF40F2A3
:10247000DC511748FFF7B6FDFFF776FE48F67F57A9
:10248000C0F25B0700BF00BF7F1EFDD100BF00BFD1
:1024900000BF1048FFF71CFE0F48FFF719FE0F485A
:1024A000FFF716FE41F6FF27C0F2B70700BF00BFD7
:1024B0007F1EFDD100BF00BF00BFDDF800E001B00E
:1024C000704700BF2C2B0000982A0000940109429D
:1024D000CD1000001600002019000020220000206E
:1024E00081B0CDF800E0012207210020FFF73AFC7F
:1024F000002201210020FFF735FC09480146002099
:10250000FFF718FC4FF4E1312020FFF7B7FB054837
:102510000221FFF747FEDDF800E001B0704700BF81
:102520000C2B00000000002081B04FF000094FF09C
:10253000000CBDEB0A0F04DCBDEB0B0F01DBD44636
:10254000EA464BF8049BBBEB0A0FFAD1BCEB0A0F2F
:1025500005DDE246D9F800B00BF1040BF1E701B05C
:102560007047FFFF81B0CDF800E0FEF757FF2F481E
:10257000FFF7AEFD2E492F48FFF716FC2C480088C8
:102580002D49FFF79FFB2D480121FFF70BFE02218C
:102590002948FFF707FE2A4800882749FFF792FBE2
:1025A00028480121FFF7FEFD02212348FFF7FAFD2D
:1025B000254800882049FFF785FB24480121FFF7C3
:1025C000F1FD02211C48FFF7EDFD214800881A4962
:1025D000FFF778FB1F480121FFF7E4FD02211648B1
:1025E000FFF7E0FD1C4800881349FFF76BFB1B4811
:1025F0000121FFF7D7FD02210F48FFF7D3FD18484F
:1026000000880D49FFF75EFB16480121FFF7CAFD60
:1026100002210948FFF7C6FD13480221FFF7C2FD5A
:10262000FEF766FDDDF800E001B070472C000020E9
:1026300020010020330000202C0100209700002002
:1026400022010020A300002024010020AF00002070
:1026500026010020BB00002028010020C900002026
:102660002A010020D5000020E100002081B0CDF833
:1026700000E00549086818B104480068FFF744FE07
:10268000DDF800E001B07047140009420448004042
:1026900081B0CDF800E0FFF77DFE002149B203488C
:1026A0000160DDF800E001B0704700BF00020042A9
:1026B00081B0CDF800E0464A464B474C47494BF6BF
:1026C0008030814206D94648006840F00201444803
:1026D000016011E045F6C050814206D940480068CB
:1026E00040F001013E48016006E03D4801686FF09E
:1026F000070001403A480160FFF7D0FD3948036008
:1027000039480460394802EA00013948016002F0A2
:10271000010040B119463648006800F00200002868
:1027200000D1F8E700E0194602F4803040B10B46D2
:102730002F48006800F40030002800D1F8E700E0DE
:102740000B4602F0805068B12948006840F0805183
:10275000274801602648006800F00050002800D19A
:10276000F8E7FFE702F0806078B12148006840F0A8
:1027700080611F48016011461A461D48006800F03C
:102780000060002800D1F8E701E011461A4601F088
:10279000807070B11648006840F080711448016084
:1027A00011461348006800F0007000B9F9E70A46C6
:1027B000FFE70C48006800F00C01900000F00C00EE
:1027C000814200D0F5E7DDF800E001B0704700BFBE
:1027D0008100010502841D0044060100401901002A
:1027E00000200240041002402C100240FFFF0F00A6
:1027F0000010024081B0FFF75BFF00F0E3F900F04A
:102800000FF800F09FF9FFF76BFEFFF71DFEFFF7D3
:10281000A9FEFCE7FEE7FFFF81B0FEE701B07047CD
:1028200081B002490248016001B0704740190100BF
:1028300094010020202D2D2D2053797374656D2077
:10284000696E6974202D2D2D20004154004154479C
:1028500041494E3D320041545443534D443D3200B2
:1028600041544441544100000000000000000000B9
:102870000000000000000000000000000000000058
:102880000000000000000000000000000000000048
:102890000000000000000000000000000000000038
:1028A0000000000000000000000000000000000028
:1028B0000000000000000000000000000000000018
:1028C00000000000000000000000002D2D20582016
:1028D00076616C75653A002D2D20592076616C75F6
:1028E000653A002D2D205A2076616C75653A002DD1
:1028F0002D204E49522076616C75653A002D2D20B1
:10290000442076616C75653A002D2D204320766158
:102910006C75653A002D2D2D2D2D2D2D2D2D2D2D48
:102920002D2D2D2D2D2D2D2D2D2D00000000002BBA
:102930000000230000240000255C002600000000A9
:10294000000000003D3F003F00003D00003A000055
:102950000D0000FF3800000039000000FFFFFFFFFE
:102960000000000000000000000000000000000067
:102970000000000000000000000000000000000057
:10298000000000000000000018080000180000000F
:102990000000000000000000000000000000000037
:1029A0000000000000000000000000000000000027
:1029B00000000000000000000000000030001408CB
:1029C000090000000A000000FFFFFFFF00000000F8
:1029D00000000000000000000000000000000000F7
:1029E00000000000000000000000000000000000E7
:1029F000000000001808000018000000000000009F
:102A000000000000000000000000000000000000C6
:102A100000000000000000000000000000000000B6
:102A2000000000000000000004000000350000006D
:102A300036000000FFFFFFFF000000000000000064
:102A40000000000000000000000000000000000086
:102A50000000000000000000000000000000000076
:102A6000180800001800000000000000000000002E
:102A70000000000000000000000000000000000056
:102A80000000000000000000000000000000000046
:102A900000000000080000080918000019180000D4
:102AA000E9170000F91700006D1C00003D1C000034
:102AB0001D1C00002D1C00000D1C00005D1C0000F2
:102AC0004D1C0000FD1B0000FFFFFFFFFFFFFFFF8D
:102AD000FFFFFFFFFFFFFFFFFFFFFFFFFFFFFFFF06
:102AE000FFFFFFFFFFFFFFFFFFFFFFFFFFFFFFFFF6
:102AF000FFFFFFFFFFFFFFFF0000000000000000DE
:102B0000000000000000000000FFFFFF00C2010005
:102B100000000000000000000000000000000000B5
:102B2000010203040102030406070809191000004A
:102B3000A509000075090000000000000000000069
:102B40000000FFFF00B5DFF814B0DFF814A0DFF8D5
:102B500014C0FFF76FFC00BD704700BF00000020ED
:102B60001F01002034280000FFFFFFFFFFFFFFFFD1
:102B7000FFFFFFFFFFFFFFFFFFFFFFFFFFFFFFFF65
:102B8000FFFFFFFFFFFFFFFFFFFFFFFFFFFFFFFF55
:102B9000FFFFFFFFFFFFFFFFFFFFFFFFFFFFFFFF45
:102BA000FFFFFFFFFFFFFFFFFFFFFFFFFFFFFFFF35
:102BB000FFFFFFFFFFFFFFFFFFFFFFFFFFFFFFFF25
:102BC000FFFFFFFF00B5DFF810B0DFF810A0FFF740
:102BD000ABFC00BD704700BF00000020DC050020FA
:00000001FF
