:10000000FCFF0220812D0000A52D0000A52D000081
:10001000A52D0000A52D0000A52D0000A52D000098
:10002000A52D0000A52D0000A52D0000A52D000088
:10003000A52D0000A52D0000A52D0000A52D000078
:10004000A52D0000A52D0000A52D0000A52D000068
:10005000A52D0000A52D0000A52D0000A52D000058
:10006000A52D0000A52D0000A52D0000A52D000048
:10007000A52D0000A52D0000A52D0000A52D000038
:10008000A52D0000A52D0000A52D0000A52D000028
:10009000A52D0000A52D0000A52D0000A52D000018
:1000A000A52D0000A52D0000A52D0000A52D000008
:1000B000A52D0000A52D0000A52D0000A52D0000F8
:1000C000A52D0000A52D0000A52D00000928000089
:1000D000A52D0000A52D0000A52D0000A52D0000D8
:1000E000A52D0000A52D0000A52D0000A52D0000C8
:1000F000A52D0000A52D0000A52D0000A52D0000B8
:1001000035280000A52D0000A52D0000A52D00001C
:10011000A52D0000A52D0000A52D0000A52D000097
:10012000A52D0000A52D0000A52D0000A52D000087
:10013000A52D0000A52D0000A52D0000A52D000077
:10014000A52D0000A52D0000A52D0000A52D000067
:10015000A52D0000A52D0000A52D0000A52D000057
:10016000A52D0000A52D0000A52D0000A52D000047
:10017000A52D0000A52D0000A52D0000A52D000037
:10018000A52D0000A52D0000A52D0000A52D000027
:08019000A52D0000A52D0000C3
:102D8000FFF768FDFFF72AFD00F0DAF900F00EF812
:102D900000F096F9FFF77AFCFFF7E6FBFFF79AFCE5
:042DA000FCE7FEE767
:1025540081B01CF8019B0BF8019BBBEB0A0FF8D16F
:0425640001B070470B
:10247C0081B04FF000094FF0000CBDEB0A0F04DCEB
:10248C00BDEB0B0F01DBD446EA464BF8049BBBEBD0
:10249C000A0FFAD1BCEB0A0F05DDE246D9F800B001
:0A24AC000BF1040BF1E701B07047DB
:10268C0081B0CDF800E0012207210020FFF7FEFB0E
:10269C00002201210020FFF7F9FB09480146002028
:1026AC00FFF71EFC4FF4E1310120FFF723FD054835
:1026BC000221FFF769FEDDF800E001B0704700BFB2
:0826CC00983000000000FF1F20
:101E980081B0CDF800E05FFA81F85FFA82F916E0C8
:101EA8005FFA89F15FFA88F0FFF7A2FB16E05FFAA4
:101EB80089F15FFA88F0FFF70DFE0FE05FFA89F10C
:101EC8005FFA88F0FFF722FD08E0012006E000280D
:101ED800E6D00128EBD00228F0D0F6E7DDF800E0E4
:041EE80001B070478E
:1015F80081B0CDF800E0A9E0012905D14FF0040140
:101608006548FFF71FFC04E04FF004016348FFF74B
:10161800A1FBBBE0012905D14FF400615E48FFF74B
:1016280011FC04E04FF400615C48FFF793FBADE068
:10163800012905D14FF010015948FFF703FC04E0D8
:101648004FF010015748FFF785FB9FE0012905D1AE
:101658004FF020015248FFF7F5FB04E04FF020015E
:101668005048FFF777FB91E0012905D14FF0800141
:101678004B48FFF7E7FB04E04FF080014948FFF7CC
:1016880069FB83E0012905D14FF040014448FFF789
:10169800D9FB04E04FF040014248FFF75BFB75E0DF
:1016A800012905D14FF480613F48FFF7CBFB04E0E7
:1016B8004FF480613D48FFF74DFB67E0012905D1F4
:1016C8004FF400513448FFF7BDFB04E04FF40051DC
:1016D8003248FFF73FFB59E0012905D14FF00401DB
:1016E8003348FFF7AFFB04E04FF004013148FFF740
:1016F80031FB4BE0012905D14FF008012C48FFF7D9
:10170800A1FB04E04FF008012A48FFF723FB3DE066
:10171800012905D14FF480712548FFF793FB04E0B8
:101728004FF480712348FFF715FB2FE0012905D1FD
:101738004FF400711E48FFF785FB04E04FF4007179
:101748001C48FFF707FB21E0012020E000283FF4B8
:1017580053AF01283FF45EAF02283FF469AF032876
:101768003FF474AF04283FF47FAF05283FF48AAFF5
:1017780006283FF495AF0728A0D00828ACD0092840
:10178800B8D00A28C4D00B28D0D0DDE70020DDF877
:1017980000E001B0704700BF50F00F4040F00F402C
:1017A80090F00F4080F00F4010F00F4000F00F4015
:0817B800D0F00F40C0F00F401B
:100E4C0081B0CDF800E0034AFFF726FFDDF800E0A3
:080E5C0001B07047040102001F
:100CA40081B0CDF800E0FFF76FFDDDF800E001B0A2
:020CB400704787
:10078C0083B0CDF800E006460C4615463046FFF720
:10079C003FFE40F2FF1306EA0300800900262246C2
:1007AC002946202E39D24FF0010303FA06F402EA4F
:1007BC0004031F46A3422ED104031A4B1C19B30089
:1007CC00E51801952C68184B04EA03032B60174BB2
:1007DC0001EA0304019B1B6843EA0404019B1C60AF
:1007EC0001F48033B3F5803F15D08401104B1B19F5
:1007FC001433029301F400333BB1FC43029B1B689E
:10080C0003EA0404029B1C6005E0029B1B6843EA9C
:10081C000704029B1C60761CC3E7DDF800E003B004
:10082C00704700BF009004400000FFFFFFFF000076
:04083C0000F00F4079
:10041C0081B040F2FF1100EA01018909084600F29F
:10042C0009024FF0010101FA02F20449096841EA9C
:10043C00020202490A6001B0704700BF38800440D4
:100D5C0081B0CDF800E0034AFFF79EFFDDF800E01C
:080D6C0001B07047040104000E
:101ADC0081B0CDF800E0A9E0012905D14FF0080153
:101AEC006548FFF7ADF904E04FF008016348FFF7D4
:101AFC002FF9BBE0012905D14FF400215E48FFF717
:101B0C009FF904E04FF400215C48FFF721F9ADE0A8
:101B1C00012905D14FF008015948FFF791F904E06C
:101B2C004FF008015748FFF713F99FE0012905D141
:101B3C004FF020015248FFF783F904E04FF02001E9
:101B4C005048FFF705F991E0012905D14FF08001CC
:101B5C004B48FFF775F904E04FF080014948FFF757
:101B6C00F7F883E0012905D14FF040014448FFF715
:101B7C0067F904E04FF040014248FFF7E9F875E0DF
:101B8C00012905D14FF400613F48FFF759F904E0F2
:101B9C004FF400613D48FFF7DBF867E0012905D100
:101BAC004FF480713448FFF74BF904E04FF4807127
:101BBC003248FFF7CDF859E0012905D14FF48031B7
:101BCC002F48FFF73DF904E04FF480312D48FFF723
:101BDC00BFF84BE0012905D14FF400312848FFF73D
:101BEC002FF904E04FF400312648FFF7B1F83DE03F
:101BFC00012905D14FF480712548FFF721F904E044
:101C0C004FF480712348FFF7A3F82FE0012905D189
:101C1C004FF400711E48FFF713F904E04FF4007104
:101C2C001C48FFF795F821E0012020E000283FF444
:101C3C0053AF01283FF45EAF02283FF469AF03288D
:101C4C003FF474AF04283FF47FAF05283FF48AAF0C
:101C5C0006283FF495AF0728A0D00828ACD0092857
:101C6C00B8D00A28C4D00B28D0D0DDE70020DDF88E
:101C7C0000E001B0704700BF50F00F4040F00F4043
:101C8C0090F00F4080F00F4010F00F4000F00F402C
:081C9C00D0F00F40C0F00F4032
:1019140081B0CDF800E0A9E0012905D14FF04001E4
:101924006548FFF791FA04E04FF040016348FFF780
:1019340013FABBE0012905D14FF480615E48FFF73B
:1019440083FA04E04FF480615C48FFF705FAADE0E8
:10195400012905D14FF004015948FFF775FA04E055
:101964004FF004015748FFF7F7F99FE0012905D12B
:101974004FF020015248FFF767FA04E04FF02001CE
:101984005048FFF7E9F991E0012905D14FF08001B2
:101994004B48FFF759FA04E04FF080014948FFF73C
:1019A400DBF983E0012905D14FF040014448FFF7FA
:1019B4004BFA04E04FF040014248FFF7CDF975E0DF
:1019C400012905D14FF010013F48FFF73DFA04E02B
:1019D4004FF010013D48FFF7BFF967E0012905D139
:1019E4004FF080013448FFF72FFA04E04FF08001F4
:1019F4003248FFF7B1F959E0012905D14FF480319C
:101A04002F48FFF721FA04E04FF480312D48FFF707
:101A1400A3F94BE0012905D14FF400312848FFF721
:101A240013FA04E04FF400312648FFF795F93DE03E
:101A3400012905D14FF480712548FFF705FA04E028
:101A44004FF480712348FFF787F92FE0012905D16E
:101A54004FF400711E48FFF7F7F904E04FF40071EA
:101A64001C48FFF779F921E0012020E000283FF429
:101A740053AF01283FF45EAF02283FF469AF032857
:101A84003FF474AF04283FF47FAF05283FF48AAFD6
:101A940006283FF495AF0728A0D00828ACD0092821
:101AA400B8D00A28C4D00B28D0D0DDE70020DDF858
:101AB40000E001B0704700BF50F00F4040F00F400D
:101AC40090F00F4080F00F4010F00F4000F00F40F6
:081AD400D0F00F40C0F00F40FC
:101EEC0081B0CDF800E00DE00846FFF7D5FE10E01C
:101EFC000846FFF7F1FE0CE00846FFF7E5FC08E0AA
:101F0C00012006E00028EFD00128F1D00228F3D000
:0A1F1C00F6E7DDF800E001B07047C1
:101CA40081B0CDF800E00D4D00F20C0109688CB252
:101CB40000F2080109688BB2011D09688AB2016843
:101CC400084691B29AB2A3B220B4FFF7D3F801B098
:101CD4000020DDF800E001B0704700BFE02E0000F6
:100E780081B0CDF800E09FB203468DB296B2DDF89E
:100E880004800848FFF7D4FD4446AAB21946B3B215
:100E9800044810B480B4FFF771FE02B0DDF800E03A
:080EA80001B0704700C00640D4
:100A380081B0304988420CD12F4A30490A60304A87
:100A480030490A60304A31490A60314A31490A60FE
:100A58004EE0314988420CD1304A28490A60304A70
:100A680028490A602F4A29490A602F4A29490A60F9
:100A78003EE02E4988420CD12D4A20490A602D4A71
:100A880020490A602C4A21490A602C4A21490A60F7
:100A98002EE02B4988420CD12A4A18490A602A4A72
:100AA80018490A60294A19490A60294A19490A60F5
:100AB8001EE0284988420CD1274A10490A60274A73
:100AC80010490A60264A11490A60264A11490A60F3
:100AD8000EE0254988420BD1244A08490A60244A75
:100AE80008490A60234A09490A60234A09490A60F1
:100AF80001B0704700A00640050F00009801FF1FD5
:100B0800810800009C01FF1F99080000A001FF1F39
:100B1800F1090000A401FF1F00B00640210F0000EA
:100B2800210A0000090A00007909000000C00640F7
:100B3800E90E000061090000A90900009109000000
:100B480000D00640B10E0000B108000049090000BD
:100B5800D909000000A00E40CD0E0000C109000018
:100B6800690800001909000000B00E404D1000008F
:0C0B780031090000E9080000010900003C
:100B840085B0CDF800E001900291ADF80C20ADF8ED
:100B94001030BDF81440ADF814400698FFF7C0FCBF
:100BA4000198FFF7E3FC02990198FFF729FDBDF8CE
:100BB4000C100198FFF7AEFDBDF810100198FFF777
:100BC400B9FDBDF814100198FFF7D0FD0198FFF7A7
:100BD40099FD0198FFF74EFDDDF800E005B0704780
:1005240081B0CDF800E040F2000C83464FEA8C0124
:100534000BEB01010968B1F1FF3F12D00BF134015B
:100544004FEA8C03C91809680A460BEB03010968D2
:1005540008461146FFF7B8FF0CF1010C1FFA8CFC9A
:0A056400E4E7DDF800E001B07047A5
:1004CC0082B0CDF800E080464FEA581202F00702E5
:1004DC00914608F01F04A24693010D4AD3184FF021
:1004EC000102A240019218460A46019900F0D4FB81
:1004FC004FEA0933074AD3184FEA8A029C1808F4CA
:10050C00E06322681A432260DDF800E002B0704715
:08051C0000F00F4000900440C4
:1005700081B01849884204D1012252B216490A605A
:1005800026E01649884204D1012252B214490A6079
:100590001EE01449884204D1012252B212490A6075
:1005A00016E01249884204D1012252B210490A6071
:1005B0000EE01049884204D1012252B20E490A606D
:1005C00006E00E49884203D1012252B20C490A606A
:1005D00001B0704700A00640A806904200B0064057
:1005E000AC06904200C00640B006904200D00640E3
:1005F000B406904200A00E402805904200B00E4084
:040600002C059042F3
:1006040085B0CDF800E08046894601AA1046FFF780
:100614001BFF164A904503D0154A904500D001E0CF
:10062400019800E002984FEA0912B0FBF2F291B28D
:1006340092B2130A9BB298F800201A4388F800205B
:1006440008F10103CAB21A7043014FEA0912B3FB5D
:10065400F2F34A0192B29A1AD0B208F10A031A7854
:1006640002431A70DDF800E005B0704700A00640B0
:0406740000B006408C
:10044C0081B0CDF800E00446FFF7DCFF40F2E83164
:10045C0000FB01F3194909680A0F1849096801F0F2
:10046C007061090EC8B21549096801F47001090DD3
:10047C00CDB21249096801F47021090CCEB2D1B287
:10048C00491C09B259430F462360221D411C09B275
:10049C00B7FBF1F1116004F20802691C09B2B7FB59
:1004AC00F1F1116004F20C02711C09B2B7FBF1F10D
:1004BC001160DDF800E001B0704700BF44800440DB
:0C04100001480068704700BF9401FF1F06
:1007180081B0841C23784FF6EF7212B203EA02020A
:100728002270841C0B0122781A43227001B0704792
:1007380081B001F0020262B1841C01F00203227848
:100748001A432270841C01F0010322781A43227094
:1007580007E0841C23784FF6FD7212B203EA020206
:06076800227001B0704791
:0C07700081B002780A43027001B07047AB
:1007080081B0C21C117841F00401117001B070472A
:1006780081B0C21C117841F00801117001B07047B7
:101CE40081B0CDF800E00D4D00F20C0109688CB212
:101CF40000F2080109688BB2011D09688AB2016803
:101D0400084691B29AB2A3B220B4FFF7ABF901B07E
:101D14000020DDF800E001B0704700BFB82F0000DC
:1010680081B0CDF800E09FB203468DB296B2DDF8AC
:1010780004800848FFF7DCFC4446AAB21946B3B21C
:10108800044810B480B4FFF779FD02B0DDF800E041
:0810980001B0704700D00640D2
:1018D40081B0CDF800E00D4D00F20C0109688CB226
:1018E40000F2080109688BB2011D09688AB2016817
:1018F400084691B29AB2A3B220B4FFF7B3FB01B089
:101904000020DDF800E001B0704700BFB82F0000F0
:1021000081B0CDF800E011E00846FFF7D1FB16E002
:102110000846FFF7BBFB12E00846FFF793FB0EE013
:102120000846FFF7A1FB0AE0012008E00028EBD0F9
:102130000128EDD00228EFD01028F1D0F4E7DDF827
:0621400000E001B0704751
:1018B00081B0CDF800E0FFF7ABFB044A04490A60B1
:1018C0000020DDF800E001B0704700BFE90E000025
:0418D0009001FF1F65
:1010100081B0CDF800E003460A48FFF70DFD0A4A0B
:1010200040F2000104B402B440F20002194640F25A
:1010300000030448FFF7A6FD02B0DDF800E001B0B0
:0C104000704700BF00C00640E02E00001A
:10188C0081B0CDF800E0FFF79BFA044A04490A60E6
:10189C000020DDF800E001B0704700BFB10E000081
:0418AC009001FF1F89
:100DCC0081B0CDF800E003460A48FFF72FFE0A4A2F
:100DDC0040F2000104B402B440F20002194640F2A1
:100DEC0000030448FFF7C8FE02B0DDF800E001B0D4
:0C0DFC00704700BF00D00640B82F000078
:1018440081B0CDF800E0FFF7BFFA044A04490A600A
:101854000020DDF800E001B0704700BFB10E0000C9
:041864009001FF1FD1
:1018680081B0CDF800E0FFF781FA044A04490A6024
:101878000020DDF800E001B0704700BF050F000050
:041888009001FF1FAD
:100D740081B0CDF800E003460A48FFF75BFE0A4A5B
:100D840040F2000104B402B440F20002194640F2F9
:100D940000030448FFF7F4FE02B0DDF800E001B000
:0C0DA400704700BF00A006404C2F00006C
:1023940083B0CDF800E0024610460D228DF80820E7
:1023A4000A228DF809201FE0FFF7BAFC23E0027827
:1023B4002AB10190FFF7B4FC0198401CF7E71AE03A
:1023C40002782AB10190FFF7ABFC0198401CF7E7B3
:1023D40002AA1046FFF7A4FC0DF109021046FFF70C
:1023E4009FFC08E0062007E00029DDD00129DED0AB
:1023F4000229E5D0F6E70020DDF800E003B07047DD
:101D240081B0CDF800E00178CCB2A0B2034C2468B5
:101D3400A0470020DDF800E001B070479001FF1FCC
:100F040081B0CDF800E081B20348FFF7DBFCDDF8E7
:0C0F140000E001B0704700BF00A00640E4
:1008C80081B0ADF800100146BDF800000A1D13788C
:1008D800C3F3C01202B9F9E7CA1D107001B070471E
:100F200081B0CDF800E081B20348FFF7CDFCDDF8D9
:0C0F300000E001B0704700BF00B00640B8
:100EE80081B0CDF800E081B20348FFF7E9FCDDF8F6
:0C0EF80000E001B0704700BF00C00640E1
:100EB00081B0CDF800E081B20348FFF705FDDDF811
:0C0EC00000E001B0704700BF00D0064009
:100ECC0081B0CDF800E081B20348FFF7F7FCDDF804
:0C0EDC0000E001B0704700BF00A00E4015
:10104C0081B0CDF800E081B20348FFF737FCDDF842
:0C105C0000E001B0704700BF00B00E4083
:1025680081B0CDF800E0FFF7F9FD1D491D48FFF7E0
:10257800E7FD1D48007840F020011B48017040F23B
:102588003300FFF73BFFFFF7ADFE184840F2DC5180
:10259800FFF732FEFFF712FE42F6FE47C0F2311790
:1025A80000BF00BF7F1EFDD100BF00BF00BF1048A5
:1025B800FFF7A0FE0F48FFF79DFE0F48FFF79AFEB2
:1025C80045F6FE17C0F2622700BF00BF7F1EFDD18F
:1025D80000BF00BF00BFDDF800E001B0704700BFDA
:1025E800A83000002430000003C00640D1130000CA
:0C25F8001600FF1F1900FF1F2200FF1F2C
:1024040081B0042806D11949096841F4803217497A
:102414000A6028E0052806D11449096841F400320D
:1024240012490A601FE0062806D11049096841F4E0
:1024340080220E490A6016E00F2806D10C4909686B
:1024440041F002020A490A600DE010280BD3A0F201
:10245400100461098A0007498B1804F01F024FF029
:1024640001019140196001B0704700BF24ED00E004
:0824740010E000E000E100E0CF
:0E22EC0081B0EFF3108C604662B601B070470F
:1021640081B0CDF800E01148006840F400010F4848
:10217400016040F2400000F043F900210C48016086
:102184000C490D4801600D48006840F002010B48FD
:1021940001600A48006840F001010848016000F04D
:1021A400A3F8DDF800E001B0704700BF3C800440B4
:1021B40000700340BFD40100007103400871034064
:1021480081B0CDF800E003460846FFF735FB184696
:0C215800FFF746FBDDF800E001B0704727
:1017C000026806490A60011D0A6805490A6000F2BC
:1017D00008010A6803490A60704700BFA801FF1F9B
:0817E000B003FF1FB403FF1F5B
:1017E80000F230011C310A6803490A60011D0A68C9
:1017F80002490A60704700BFD805FF1FB803FF1FE2
:1022000081B0CDF800E00023274A13700023274A4D
:1022100013700023264A13700023264A1370264A9F
:102220001060264A1160264A1046FFF7CBF9254A6E
:1022300010600023244A13800123244A13800023C2
:10224000234A13800023234A13700023194A137072
:102250000023174A13700123134A13700023154AF1
:1022600013700023124A137000230F4A13700023C7
:10227000194A13600123194A13700023174A137077
:102280000023174A13600123164A13700023154ACE
:102290001370154A127812B10120FFF7ABF9DDF87F
:1022A00000E001B0704700BF1F01FF1FCB04FF1FFC
:1022B000C904FF1FC804FF1FBC01FF1FB801FF1F97
:1022C000F700FF1FB401FF1FB001FF1FAC01FF1F8C
:1022D000D004FF1FD204FF1FCC04FF1FCA04FF1F3E
:0C22E000D405FF1FD205FF1FD305FF1F10
:1015C40000214FF005040346C8B21A46591C0B46C5
:1015D4001178CAB24AB100F00701C9B202FA01F1A6
:0E15E40089B26418401CC0B2EFE72046704781
:0215F40070473E
:1021C40081B0CDF800E001200B4C2468A047FFF754
:1021D400F1F80020084C2468A047FFF7EBF8012031
:1021E400054C2468A047FFF7D9F8FFF7D7F8DDF8C6
:0C21F40000E001B0704700BFB803FF1FFF
:0C182C0001490860704700BF0808FE4337
:0C18380001490860704700BF2C08FE4307
:0C18200001490860704700BF1010FE4333
:0C18080001490860704700BF1410FE4347
:0C18140001490860704700BF1C10FE4333
:0C1DD40001490860704700BF1810FE4372
:0C1DE00001490860704700BF2800FE4366
:0C1DBC0001490860704700BF3408FE4376
:0C1DC80001490860704700BF0818FE4386
:0C1DEC0001490860704700BF0C18FE435E
:0C1E1C0001490860704700BF2018FE4319
:0C1E040001490860704700BF2418FE432D
:0C1DB00001490860704700BF0C08FE43AA
:0C1D5C0001490860704700BF4C08FE43BE
:0C1D440001490860704700BF0C10FE430E
:0C1D500001490860704700BF1410FE43FA
:0C1D980001490860704700BF1C10FE43AA
:0C1DA40001490860704700BF1810FE43A2
:0C1D800001490860704700BF2C00FE43C2
:0C1D8C0001490860704700BF2008FE43BA
:0C1D740001490860704700BF4010FE43AA
:0C1D680001490860704700BF4410FE43B2
:0C1DF80001490860704700BF2018FE433E
:0C1E100001490860704700BF2418FE4321
:0C15B80001490860704700BF1808FE439E
:0C10DC0001490860704700BF2808FE436F
:0C10F40001490860704700BF0810FE436F
:0C10E80001490860704700BF1410FE436F
:0C11180001490860704700BF1C10FE4336
:0C110C0001490860704700BF1810FE4346
:0C11000001490860704700BF1000FE436A
:0C10AC0001490860704700BF1C08FE43AB
:0C10A00001490860704700BF4010FE438B
:0C10D00001490860704700BF4410FE4357
:0C10C40001490860704700BF2018FE437F
:0C10B80001490860704700BF2418FE4387
:1013B80040F6FE07C0F23D0700BF00BF7F1EFDD10B
:0813C80000BF00BF00BF704729
:1013A00045F6FE17C0F2622700BF00BF7F1EFDD1C9
:0813B00000BF00BF00BF704741
:1022FC0082B0CDF800E0019001991A48FFF73EF941
:10230C001949097811B1FFF76FF8F9E717490198E6
:10231C00FEF70EFE0D210198FEF7E2FF00210129C8
:10232C0007D0042212490A7012490E480F4C246837
:10233C00A047002210490A70002210490A7001229D
:10234C0009490A7000220E490A6001220D490A70DF
:10235C000549097811B1FFF747F8F9E7DDF800E016
:10236C0002B07047BC03FF1F1F01FF1FBC04FF1FFF
:10237C00C604FF1FC404FF1FC804FF1FC904FF1FAE
:08238C00CC04FF1FCA04FF1F6F
:1013D00082B0CDF800E00190022100F0DBFF01981F
:1013E00001460348FFF71EFDDDF800E002B070473C
:0413F0003300FF1FA8
:100E240081B00091014600980B461C465A1C154699
:100E34000346421C10461A78227022780AB12B46C7
:080E4400F3E7084601B0704716
:101588000A46014640F2000440F2000086B21046C6
:10159800A3B2621C95B2CC18B3B2721C96B2C21830
:0E15A8001278227022780AB1ACB2F1E77047D7
:1013F40081B0CDF800E00020002806D0FFF702FD00
:1014040018B1FFF7D3FC01F0FBF85248007800282C
:1014140000F03A805048007810B1002000F0E8F85D
:1014240000214E48017000214D4801704D4800785C
:10143400022805D14C494D484D4C2468A0470BE087
:101444004B494A48FFF778FD022146480170464956
:101454004648474C2468A04700213E4801700021BB
:101464004448018000214148017000214248017034
:10147400002142480170002141480170364800783B
:1014840010B1012000F0B4F83C48007800282CD0BA
:101494003148007810B1002000F0AAF800212F484C
:1014A400017000212E48017031493048FFF744FD96
:1014B40000212C4801702C492C482D4C2468A0474D
:1014C40000212C48018000212848017000212A486D
:1014D40001700021294801700021294801701E482B
:1014E400007810B1012000F083F823480078002828
:1014F4002CD01948007810B1002000F079F80021B0
:101504001648017000211648017019491748FFF761
:1015140013FD01211348017013491448144C246825
:10152400A0470021134801800021104801700021C8
:101534001148017000211148017000211048017008
:101544000548007810B1012000F052F8DDF800E001
:1015540001B07047CB04FF1FD305FF1FD205FF1F47
:10156400CA04FF1FC604FF1FC404FF1FD204FF1FC9
:10157400BC04FF1FD004FF1FC804FF1FC904FF1FC2
:041584001F01FF1F25
:100E080081B0CDF800E0044C2468A047C0B2DDF8FA
:0C0E180000E001B0704700BFB403FF1FF2
:1008800081B0CDF800E00348FFF7DAFFDDF800E0C3
:0808900001B0704700A0064012
:1008400081B0011D0A78C2F3401101B9F9E7C11D59
:080850000978C8B201B070473D
:1008980081B0CDF800E00348FFF7DAFFDDF800E0AB
:0808A80001B0704700A00640FA
:0E08580081B0011D0978C1F3401001B0704756
:1009F00081B0CDF800E00348FFF7C0FEDDF800E06D
:080A000001B0704700A00640A0
:0E077C0081B0011D0978C1F3801001B07047F3
:100A200081B0CDF800E00348FFF70AFFDDF800E0F1
:080A300001B0704700B0064060
:100A080081B0CDF800E00348FFF722FFDDF800E0F1
:080A180001B0704700B0064078
:1009780081B0CDF800E00348FFF7FCFEDDF800E0A9
:0809880001B0704700B0064009
:1009600081B0CDF800E00348FFF76AFFDDF800E052
:0809700001B0704700C0064011
:1009A80081B0CDF800E00348FFF752FFDDF800E022
:0809B80001B0704700C00640C9
:1009900081B0CDF800E00348FFF7F0FEDDF800E09D
:0809A00001B0704700C00640E1
:1008B00081B0CDF800E00348FFF7C2FFDDF800E0AB
:0808C00001B0704700D00640B2
:1009480081B0CDF800E00348FFF782FFDDF800E052
:0809580001B0704700D0064019
:1009D80081B0CDF800E00348FFF7CCFEDDF800E079
:0809E80001B0704700D0064089
:1009C00081B0CDF800E00348FFF73AFFDDF800E022
:0809D00001B0704700A00E40C9
:1008680081B0CDF800E00348FFF7F2FFDDF800E0C3
:0808780001B0704700A00E4022
:1009180081B0CDF800E00348FFF72CFFDDF800E0D8
:0809280001B0704700A00E4071
:1009300081B0CDF800E00348FFF782FFDDF800E06A
:0809400001B0704700B00E4049
:1008E80081B0CDF800E00348FFF7B2FFDDF800E083
:0808F80001B0704700B00E4092
:1009000081B0CDF800E00348FFF738FFDDF800E0E4
:0809100001B0704700B00E4079
:100DB00081B0CDF800E0044C2468A047C0B2DDF853
:0C0DC00000E001B0704700BFB003FF1F4F
:10260400002218490A70002217490A70012217494A
:102614000A70002216490A60012216490A7018B984
:102624001549098801B909E013490A881349891829
:102634000870114909884A1C0F490A800E490A8802
:102644000F498A4202D301220E490A700A490988B5
:10265400B1F1FF0F04D1084909884A1E06490A80CE
:10266400704700BFC804FF1FC904FF1F1F01FF1FDD
:10267400D405FF1FD205FF1FD004FF1FD204FF1F84
:08268400C0000000CB04FF1FA1
:100F3C0089B0CDF800E0069007910DF1040B0BF190
:100F4C00110ADFF8B0C001F0FFFA002307222A498A
:100F5C000698FFF741FE8DF8200001230722264951
:100F6C000698FFF739FE8DF821000023062223494D
:100F7C000698FFF731FE8DF82200012306221F4947
:100F8C000698FFF729FEC1B208B9102000E0C8B2DC
:100F9C009DF82120841A9DF82130069AD31801AAB5
:100FAC0019461046A2B2FFF7ADFE01AA1046FFF794
:100FBC007DFEC1B2C2B21301114AD2180C321368B1
:100FCC00079A1360079A141D0B010D4AD2180832A8
:100FDC0012682260079A02F208039DF820201A700A
:100FEC00079A0832531C9DF822201A70DDF800E095
:100FFC0009B0704784300000F800FF1F0D01FF1F7F
:04100C00B001FF1F11
:100BE40085B0CDF800E0824602918DF80C208DF896
:100BF40010305046FFF774FD8DF81100C4B2102C6C
:100C040002D910248DF81140012751469DF80C405B
:100C1400A7423FD2032404FB07F5029C6419019107
:100C24002046FFF75DFD0199C2B240F2000C8A46EE
:100C3400F9B25FFA8CFB5FFA82FC9DF81140A34580
:100C440023D20AEB0B06032404FB01F5029C64196E
:100C54008DF804105FFA8CF231462046FFF712FD3E
:100C64009DF8041058B99DF810400CB9C8B212E0B0
:100C74009DF81040012C02D15FFA8BF00BE00BF1D0
:100C84000104E0B25FFA80FBD7E74C1CE5B25146A1
:0E0C9400EFB2BBE70020DDF800E005B07047CE
:1006E400014640F2000340F2000082B20846C118FD
:1006F400097821B15B1C9BB2521C92B2F7E790B20D
:0207040070473C
:1006880093B20A46014640F2000440F200001FFA05
:1006980080F810469AB2EAB10B191D78EEB2631CC5
:1006A8009FB200EB08031C785FFA84F908F101088F
:1006B8001FFA88F8A54207D04E4502D2FF2040B263
:1006C80001E0012040B207E006B903E0521E92B2F1
:0A06D800BCB2E0E7002040B270471A
:100D100081B0044640F20000ADF8002082B20846DF
:100D2000BDF8001059B183181B782370237813B1D4
:100D3000521C92B2FFE7641C491E89B2F2E701B06F
:020D40007047FA
:100CB80081B0CDF800E004462046FFF70FFDC5B22D
:100CC800204600F07BFC0124EBB20D4909888C42D8
:100CD80011D222010B4989180988994208D12201A9
:100CE80008498918091D0968814201D1A0B203E0A9
:100CF800641CA4B2E9E70020DDF800E001B0704709
:080D0800AC01FF1FB001FF1F49
:1012EC0083B0CDF800E08DF8081002784AB102788E
:1012FC000190D0B2FFF720FD0198421C1146084620
:10130C00F3E79DF80800FFF717FD0A20FFF714FD1F
:08131C00DDF800E003B07047AA
:100D440081B0CDF800E0034C2468A047DDF800E052
:080D540001B07047A801FF1F68
:1026D40081B0CDF800E0FEF78BFE2F48FFF70CFE2B
:1026E4002E492F48FFF71EFC2C4800882D49FFF780
:1026F40099FB2D480121FFF74BFE02212948FFF7E2
:1027040047FE2A4800882749FFF78CFB2848012107
:10271400FFF73EFE02212348FFF73AFE25480088D2
:102724002049FFF77FFB24480121FFF731FE0221F6
:102734001C48FFF72DFE214800881A49FFF772FB59
:102744001F480121FFF724FE02211648FFF720FE4F
:102754001C4800881349FFF765FB1B480121FFF75C
:1027640017FE02210F48FFF713FE184800880D4991
:10277400FFF758FB16480121FFF70AFE022109481A
:10278400FFF706FE13480221FFF702FEFEF706FEDE
:10279400DDF800E001B070472C00FF1F2001FF1F8F
:1027A4003300FF1F2C01FF1F9700FF1F2201FF1F93
:1027B400A300FF1F2401FF1FAF00FF1F2601FF1FFF
:1027C400BB00FF1F2801FF1FC900FF1F2A01FF1FB5
:0827D400D500FF1FE100FF1F0B
:101F280085B0CDF800E080460F460DF1040B0BF1AB
:101F38000A0ADFF8C0C100F009FB444608F10102B3
:101F48002C2109B21046FFF7E9F9031B01AA214623
:101F580010469AB2FEF7D8FE3A46049201AA1046F5
:101F6800FFF700F9BCEE400A10EE103A9BB2049A53
:101F7800138001AA002109B210460A22FFF7CEF801
:101F88002C214046FFF7DAF80546421C2C2109B2FD
:101F98001046FFF7C3F98046AC1C031B01AA214673
:101FA80010469AB2FEF7B0FEBA1C049201AA104677
:101FB800FFF7D8F8BCEE400A10EE103A9BB2049A2C
:101FC800138001AA002109B210460A22FFF7A6F8D9
:101FD800454608F101022C2109B21046FFF79EF987
:101FE8008046AC1C031B01AA214610469AB2FEF794
:101FF8008BFE3A1D049201AA1046FFF7B3F8BCEE17
:10200800400A10EE103A9BB2049A138001AA0021EC
:1020180009B210460A22FFF781F8454608F1010285
:102028002C2109B21046FFF779F98046AC1C031B36
:1020380001AA214610469AB2FEF766FEBA1D04921E
:1020480001AA1046FFF78EF8BCEE400A10EE103ACF
:102058009BB2049A138001AA002109B210460A22F1
:10206800FFF75CF8454608F101022C2109B2104639
:10207800FFF754F98046AC1C031B01AA2146104601
:102088009AB2FEF741FE07F20802049201AA10462E
:10209800FFF768F8BCEE400A10EE103A9BB2049ABB
:1020A800138001AA002109B210460A22FFF736F868
:1020B800454608F101024F2109B21046FFF72EF9F3
:1020C800AC1C031B01AA214610469AB2FEF71CFE5F
:1020D80007F20A02049201AA1046FFF743F8BCEE81
:1020E800400A10EE103A9BB2049A1380DDF800E023
:0820F80005B07047B430000090
:1013240081B0ADF800100146BDF900000B78C2B2DF
:10133400934207D00B46491C1A78002A01D1002099
:0C13440002E0F3E70A46104601B07047D3
:10116C0083B0CDF800E04FF0000101EE101A40F210
:10117C0000031BB20246441C1178ADF80810BDF9EF
:10118C000810A1B1BDF90800FFF766FE78B1B2EE08
:10119C00040A61EE000ABDF90810303909B200EEFC
:1011AC00101AB8EEC00A30EE801A2046E2E7BDF9FC
:1011BC0008102E2925D120460246441C1178ADF882
:1011CC000810BDF90810C1B1BDF90800FFF744FEC5
:1011DC0098B1B2EE040A61EE000ABDF9081030397C
:1011EC0009B200EE101AB8EEC00A30EE800AB0EE6A
:1011FC00401A5B1E1BB22046DEE718B2B0EE410A65
:10120C0002E0B0EE410A18B2BDF90810652906D00B
:10121C00BDF90810452902D0F0EE400A45E040F235
:10122C0001031BB240F2000212B22178ADF8081093
:10123C00641CBDF908102B2904D12178ADF80810D5
:10124C00651C13E0BDF908102D290DD12178ADF8DE
:10125C000810611C0B464FF6FF7109B2ADF8041073
:10126C001946BDF9043000E021460D4604B216B211
:10127C00BDF90800FFF7F0FD80B10A2109B206FBA9
:10128C0001F212B2BDF90810303909B2511808B286
:10129C002978ADF808106D1C06B2E9E706FB03F1DE
:1012AC0009B2601800B2F0EE400A002806DDB2EE7A
:1012BC00040A60EE800A401E00B2F6E7002807DA46
:1012CC00064900EE101A60EE800A401C00B2F5E7E9
:1012DC00B0EE600ADDF800E003B07047CDCCCC3D39
:100E6400302803D3392801D8012100E00021C8B279
:020E74007047C5
:10112400D3B2024608B21146DDB2ECB26B1EDDB298
:0E1134001CB1C3B20B70491CF7E710467047A0
:1011440081B08DF8001001469DF80000FFE70A7891
:10115400824201D1084605E00B46491C1A78002A50
:08116400F5D1002001B0704735
:101E280081B0CDF800E00E46002183B2002805DA23
:101E38000121404280B280B28FB201E098B28FB2E5
:101E48003146FFF781FA06213446B8B2002908D98D
:101E580063184A1E92B2A21812781A70491E89B2E3
:101E6800F4E72022227070B1002081B22046421887
:101E78001278202A02D1491C89B2F8E74A1E92B288
:0E1E880083182D221A70DDF800E001B07047BB
:1013500081B00A4681B200208DB21146052805D21F
:101360000B1820221A70401CC0B2F7E70B1800229D
:101370001A70401EC0B20C180A23B5FBF3F203FB2F
:10138000125292B2303222700A22B5FBF2F292B2BD
:1013900095B202B902E0401EC0B2ECE701B070475E
:1028540090B072B6974801909748029097480390B9
:102864009748049097480590974806909748079092
:10287400974808909748099097480A9097480B9072
:1028840097480C90974998480D9098480E900D9849
:1028940000F007000F9001F0010050B94CF22050F5
:1028A400934908804DF62810088040F2D2119148CF
:1028B40001809148007800F0010050B18F48007801
:1028C40000F0080020B18D49087840F00800087035
:1028D40021E08B48006840F0005189480160894834
:1028E400006800F48070B0B9864801686FF47050D5
:1028F40001EA000040F440718248016081480068A8
:1029040040F480717F4801607E4801686FF4007074
:1029140001407C480160AA217B4801700D9800F0B9
:10292400100060B9794801786FF060000140774881
:10293400017077480078012800D0FAE71CE00D9870
:1029440000F01000C0B10E997248814208D960218C
:102954006E4801706E480078802800D0FAE70BE0DA
:102964006A4801786FF06000014068480170684867
:102974000078012800D0FAE70499674801606748A5
:1029840001686FF440200140029800F440200143A4
:1029940062480160624801686FF440300140039866
:1029A40000F4403001435E4801600F9830B10F9845
:1029B400012803D00F98022800D061E0019800F0AC
:1029C400800050B9089800F0400028B10B9800F03E
:1029D4000300002800D100E015E05248006840F4EC
:1029E40000715048016050480168504801404E4809
:1029F4000160069800F0040028B14D4801684B4876
:102A040001404B4801600A994A48017005994A48B7
:102A14000170059800F0040038B14848007800F0CF
:102A24001000002800D1F8E705E04448007800F0E1
:102A3400100000B1F9E74248007800F0BF01C9B2C4
:102A4400069800F0FD0001433D480170079800F02E
:102A5400E0013C48007800F01F0001433948017050
:102A64000199394801700B99384801700F98022870
:102A740005D13348007840F0020131480170B8E0D4
:102A8400019800F0800020B90B9800F0030000B119
:102A940065E02448006840F400712248016022483F
:102AA40001682248014020480160069800F00400B3
:102AB40000F04EB80000000000000C00000001000F
:102AC40000001401220000002400000000000000A7
:102AD40002000000460000000000000000000000AA
:102AE400000000000000000007000000C0D4010046
:102AF4000E2005400020054000F0074002D00740AA
:102B04003C80044010D0034000E0074001E007404F
:102B140003E0074080380100448004400070044012
:102B2400048004403880044048900440FFF8FFFECD
:102B34004C900440084006400040064006400640D1
:102B44000140064003400640005006400C40064049
:102B540028B17A4801687A480140784801600A99A6
:102B6400784801707848007800F0BF01C9B206982F
:102B740000F0FD000143744801700199734801702D
:102B84000B99734801700F98072805D1059840F0F8
:102B940080017048017002E005996E480170069842
:102BA40000F0040048B10B9800F0030028B96A480B
:102BB400007800F0020000B9F9E7059800F004007D
:102BC40038B16548007800F01000002800D1F8E71B
:102BD40005E06148007800F0100000B1F9E70798BB
:102BE40000F0E0015D48007800F01F0001435B48FD
:102BF4000170089800F0BF0159480170099800F06D
:102C0400BF0158480170089800F0400028B15448AA
:102C1400007840F04001524801700F98052806D111
:102C24004948007840F00201474801701BE00F98C2
:102C3400062803D00F98072800D014E049480078EC
:102C440040F04001474801704348007800F04000DC
:102C540000B9F9E70F98072805D13E48007800F03D
:102C64003F013C4801700F9818B10F98032800D019
:102C74002CE03948007800F00C0000B1F9E73A483C
:102C8400006840F00101384801604FF00001374806
:102C940001604FF08001364801604FF0050135486E
:102CA40001604FF00101324801603148006800F0D2
:102CB400800000B9F9E700212D4801602A48016825
:102CC4006FF001000140284801602AE00F980128B4
:102CD40003D00F98022800D007E01F48007800F0C6
:102CE4000C00042800D0F8E71BE00F98042806D055
:102CF4000F98062803D00F98052800D007E016483F
:102D0400007800F00C00082800D0F8E709E00F98DC
:102D1400072806D11048007800F00C000C2800D0D9
:102D2400F8E7154801686FF00F0001400C9800F0B7
:102D34000F0001431048016010B070474C900440EC
:102D4400FFF8FFFE084006400140064000500640E0
:102D54000C40064000400640064006400340064042
:102D64000440064005400640388004400800044002
:0C2D7400000004400400044048800440BB
:102DAC0081B002490248016001B07047C0D40100F3
:042DBC009401FF1F60
:082DA40081B0FEE701B07047A9
:1027DC0081B072B60849086840F47000086000BF08
:1027EC0000BF00BF00BFF1EE100A40F44000E1EE64
:0C27FC00100A62B601B0704788ED00E0E2
:1030C00000B5DFF814B0DFF814A0DFF814C0FFF784
:1030D00041FA00BD704700BF0000FF1F1F01FF1F26
:0430E000C02D0000FF
:1031400000B5DFF810B0DFF810A0FFF797F900BD69
:0C315000704700BF0000FF1FDC05FF1FE0
:1028080081B0CDF800E00748007800F0200000B261
:1028180018B105480078FFF7F1FEDDF800E001B0D7
:0C282800704700BF04C0064007C0064017
:1028340081B0CDF800E0FFF73DFE012149B2034825
:102844000160DDF800E001B0704700BF80216E42F6
:1024B8001C480078C8B11C4802681B480068411CC9
:1024C800194801601948006882420ED90021154850
:1024D8000170002114480160154801881548411809
:1024E8000020087001211448017014480078C0B118
:1024F8001348026812480068411C114801601148DD
:1025080082420ED900210D48017000210C4801605B
:1025180007480188074841180020087001210A4827
:1025280001707047CA04FF1FCC04FF1FC004FF1FBF
:10253800D004FF1FD204FF1FC804FF1FD205FF1FCE
:0C254800D405FF1F05000000C904FF1FA0
:100400000000000000000000FFFFFFFF02FDFFFFF3
:102DC000202D2D2D2053797374656D20696E6974E3
:062DD000202D2D2D200036
:0C2DD60041540041544741494E3D320039
:0A2DE20041545443534D443D320068
:102DEC004154444154410000000000000000000028
:102DFC0000000000000000000000000000000000C7
:102E0C0000000000000000000000000000000000B6
:102E1C0000000000000000000000000000000000A6
:102E2C000000000000000000000000000000000096
:102E3C000000000000000000000000000000000086
:102E4C0000000000000000000000002D2D20582084
:102E5C0076616C75653A002D2D20592076616C7564
:102E6C00653A002D2D205A2076616C75653A002D3F
:102E7C002D204E49522076616C75653A002D2D201F
:102E8C00442076616C75653A002D2D2043207661C7
:102E9C006C75653A002D2D2D2D2D2D2D2D2D2D2DB7
:0C2EAC002D2D2D2D2D2D2D2D2D2D000058
:102EB8000000002B0000230000240000255C0026F1
:102EC80000000000000000003D3F003F00003D0002
:072ED800003A00000D0000AC
:102EE0006303000062030000FFFFFFFF000000001B
:102EF00000000000000000000000000000000000D2
:102F000000000000000000000000000000000000C1
:102F1000000000000000080000000800FFFFFFFFA5
:102F200000000000000000000000000000000000A1
:102F30000000000000000000000000000000000091
:0C2F400000000000000000000000000085
:102F4C003103000030030000FFFFFFFF0000000012
:102F5C000000000000000000000000000000000065
:102F6C000000000000000000000000000000000055
:102F7C00000000000000080000000800FFFFFFFF39
:102F8C000000000000000000000000000000000035
:102F9C000000000000000000000000000000000025
:0C2FAC0000000000000000000000000019
:102FB8005103000050030000FFFFFFFF0000000066
:102FC80000000000000000000000000000000000F9
:102FD80000000000000000000000000000000000E9
:102FE800000000000000080000000800FFFFFFFFCD
:102FF80000000000000000000000000000000000C9
:1030080000000000000000000000000000000000B8
:0C301800000000000000000000000000AC
:103024002D180000391800002118000009180000AC
:1030340015180000D51D0000E11D0000BD1D000095
:10304400C91D0000ED1D00001D1E0000051E00002E
:10305400FFFFFFFFFFFFFFFFFFFFFFFFFFFFFFFF7C
:10306400FFFFFFFFFFFFFFFFFFFFFFFFFFFFFFFF6C
:10307400FFFFFFFFFFFFFFFFFFFFFFFFFFFFFFFF5C
:10308400000000000000000000000000000000003C
:01309400003B
:1030980000C2010000000000000000000000000065
:0C30A800E90E000061090000A909000009
:0A30B4000000000000000000000012
:00000001FF
