:040000006EEF19F096
:020006001200E6
:1000080000C01CF001C01BF002C01AF003C019F0B8
:1000180004C018F005C017F006C016F007C015F0A8
:10002800E1CF1DF0E2CF1EF09EA007D068EC17F0DC
:100038009E90F00ECF6E600ECE6E9EAA05D0C2DAEC
:1000480000C00EF6E3EC17F01CC000F01BC001F076
:100058001AC002F019C003F018C004F017C005F068
:1000680016C006F015C007F01DC0E1FF1EC0E2FF74
:02007800110075
:0E007A0006010DB102D08B9601D08B861200CC
:0E00880006010DB102D08B9C01D08B8C1200B2
:0E00960006010DB102D08B9801D08B881200AC
:0E00A40006010DB102D08D9601D08D8612009E
:0E00B20006010DB102D0899401D0898412009C
:0E00C00006010DB102D08B9A01D08B8A12007E
:0E00CE0006010DB102D08B9801D08B88120074
:0E00DC0006010DB102D08B9401D08B8412006E
:0E00EA0006010DB102D08B9E01D08B8E12004C
:0E00F80006010DB102D08A9201D08A82120058
:0E01060006010DB102D08F9401D08F8412003B
:0E01140006010DB102D08A9401D08A84120037
:0E01220006010DB102D08F9201D08F82120023
:0E01300006010DB102D08B9801D08B88120011
:0E013E0006010DB102D08B9601D08B86120007
:0E014C0006010DB102D08B9601D08B861200F9
:0E015A0006010DB102D08D9401D08D841200EB
:0E01680006010DB102D08B9801D08B881200D9
:0E01760006010DB102D08F9001D08F801200D3
:0E01840006010DB102D08B9A01D08B8A1200B9
:0E01920006010DB102D08B9801D08B881200AF
:0E01A00006010DB102D08B9601D08B861200A5
:0E01AE0006010DB102D08B9201D08B8212009F
:0E01BC0006010DB102D08B9A01D08B8A120081
:0E01CA0006010DB102D08D9001D08D80120083
:1001D8000F0121B302D00000FBD70DC61CFF12008F
:0E01E800ACB202D00000FCD70DC6ADFF120075
:0E01F60006010DB102D08B9001D08B8012005B
:0E02040006010DB102D0899001D08980120050
:0E02120006010DB102D0899801D08988120032
:0E02200006010DB102D0899201D08982120030
:0E022E0006010DB102D08B9601D08B86120016
:0E023C0006010DB102D08D9201D08D8212000C
:0E024A0006010DB102D08B9801D08B881200F6
:0E02580006010DB102D08B9E01D08B8E1200DC
:0E02660006010DB102D08A9001D08A801200EC
:0E02740006010DB102D08B9601D08B861200D0
:0E02820006010DB102D08B9C01D08B8C1200B6
:10029000F250026EF29E0500FF6A0150FE6E0050A1
:0802A000FD6E02BEF28E120099
:1002A800BDC1E1FFBEC1E2FF0BC6E9FF0CC6EAFF14
:1002B800EECFE6FFBBC100F0BCC101F0E5DF006A8C
:0202C800120022
:0A02CA00000E82B6010E006E120055
:0A02D400000E80B2010E006E120051
:0A02DE00000E80B8010E006E120041
:0A02E800000E82B6010E006E120037
:0A02F200000E84B4010E006E12002D
:0A02FC00000E82BE010E006E12001B
:0A030600000E82B8010E006E120016
:0A031000000E82BC010E006E120008
:0A031A00000E84B2010E006E120006
:0A032400000EACB2010E006E1200D4
:10032E0001C604F602C605F60D0E0601006F0A0E92
:10033E00066F35D004C60BF605C60CF6AEDF3AD006
:10034E0004C6E9FF05C6EAFFEE5209E004C60BF645
:10035E0005C60CF6A2DF0601044B052BF1D72AD0F9
:10036E0004C6E9FF05C6EAFFEE5209E004C60BF625
:10037E0005C60CF692DF0601044B052BF1D70601DC
:10038E00000E0B6F060E0C6F88DF060E06010B6F4C
:10039E00060E0C6F82DF0ED0060E006E0CD006011C
:1003AE000351000AC7E00351010ACAE00351020AD1
:0803BE00D7E0F2D7006A12003B
:0A03C600000E84B0010E006E12005C
:0A03D000000E82B6010E006E12004E
:0A03DA00000E82BE010E006E12003C
:0A03E400000E9EBA010E006E12001A
:1003EE0001C604F002C605F004C002F005C003F019
:1003FE00044A052A03C600F004C601F00601034BA9
:10040E00042B00C0E9FF01C0EAFF02C0E1FF03C0F8
:10041E00E2FFEECFE6FF02C0E9FF03C0EAFFEE52B5
:0E042E0001E0E2D701C600F002C601F01200A4
:0A043C00000E81B0010E006E1200E8
:0A044600000E82B8010E006E1200D5
:0A045000000E81B2010E006E1200D2
:10045A000B820BAE37EF02F003680268016800688E
:08046A000A360232FF0E1200F7
:100472000601036B046B056B066B03510125D96EF4
:1004820004510221DA6E000EDE1805E0034B042B44
:10049200054B062BF2D705C600F006C601F0120086
:1004A2000601076B086B096B0A6B000E061902E165
:1004B2000551000A2FE007510125E96E085102217A
:1004C200EA6EEECF02F002C004F0074B082B09518E
:1004D2000325D96E0A510421DA6EDECF01F001C084
:1004E20005F0094B0A2B025001180BE00550045C81
:1004F20003E2FF0E036E02D0010E036E03C000F092
:100502000AD0000E041801E105D0010E055F000EAD
:08051200065BCBD7006A120062
:0A051A00000E82BA010E006E1200FE
:0A052400000E82B4010E006E1200FA
:10052E000601006B036B046B050E056F000E066F64
:10053E00000E076F000E086F01C600F002C601F034
:10054E00014B022B00C0E9FF01C0EAFFEECF03F61C
:10055E00000E046F000E046F0351041119E0070E14
:10056E000015006E00C002F003C600F004C601F0D4
:10057E00025005E0003600900136FF0FFAD700500A
:10058E00052701500623000E07230823002BD4D77E
:10059E0005C600F006C601F007C602F008C603F055
:0205AE00120039
:0805B0000AAE029E000E1200CB
:0A05B800000E82B8010E006E120062
:0A05C200000E84B6010E006E120058
:1005CC00AECF01F0ABA202D0AB98AB8801C000F06B
:0205DC0012000B
:0A05DE00000E80B4010E006E120042
:1005E8000B6A0A6A096A00500402F4CF09F0F3CFD3
:1005F80008F001500502F4CF0BF0F3CF0AF00050D9
:100608000502F3500926F4500A22E86A0B22015029
:100618000402F3500926F4500A22E86A0B2208C0A3
:1006280000F009C001F00AC002F00BC003F012008C
:0A063800000E82B8010E006E1200E1
:0E064200026A016A006A086A036A000E12006A
:100650000B840BAE33EF03F0010E036E026A016AE6
:0A066000006A0A360232FF0E120093
:0A066A00000E82BA010E006E1200AD
:0A067400000E82B0010E006E1200AD
:0A067E00000E80B0010E006E1200A5
:0A068800000E82B6010E006E120093
:0A069200000E81B4010E006E12008C
:0C069C00000E0F0121B3010E006E1200D1
:0A06A800000EA4BA010E006E12004D
:1006B2001DCF01F00F0122A302D02299228901C08D
:0406C20000F0120032
:0A06C600000E86B4010E006E120053
:0A06D000000E86B0010E006E12004D
:0A06DA00000E82B2010E006E120045
:0A06E400000E82B6010E006E120037
:0A06EE00000E82B8010E006E12002B
:0A06F800000E82BC010E006E12001D
:0A070200000E82B6010E006E120018
:0A070C00000E82BA010E006E12000A
:0A071600000E82B8010E006E120002
:0A072000000E86B2010E006E1200FA
:10072A000C6A0E6A0250D8A4AEEF03F001C002F0C0
:10073A0000C001F0006A0E860250D8A4AEEF03F0A2
:10074A0001C002F0016A0E960E880250D8B4C0EFBA
:10075A0003F00E50035ED8A4D8A0C5EF03F0D890DA
:10076A0002BECAEF03F0003601360236032EB5EF99
:10077A0003F0C5EF03F0010E0C6E5EDFCDEF03F060
:10078A00020E0C6E60DFCDEF03F0040E0C6E0BDF71
:02079A0012004B
:10079C000CB010EF04F00CA2B6EF04F00E6A000ED1
:1007AC00026427EF04F0F00E0214D8A4F2EF03F069
:1007BC00023A01380F0B02260138F00B016E00389B
:1007CC000F0B01260038F00B006E08380F0B0026BB
:1007DC000838F00B086E0E84D89002BE0BEF04F0B4
:1007EC0008360036013602360E2A02BE0BEF04F034
:1007FC0008360036013602360E2A02BE0BEF04F024
:10080C0008360036013602360E2A0E500364ACEF61
:10081C0004F0035E0BBC08AEB1EF04F0D880800E80
:10082C0008640030000E002201220222D8A0B1EF91
:10083C0004F0023201320032034AB6EF04F0B1EF99
:10084C0004F001C002F000C001F008C000F0086A1A
:10085C00000E0E8602645EEF04F0F00E0214D8A4B3
:10086C0046EF04F0023A01380F0B02260138F00B68
:10087C00016E00380F0B01260038F00B006E0E8451
:10088C00D89002BE0BEF04F00036013602360E2A69
:10089C0002BE0BEF04F00036013602360E2A02BE01
:1008AC000BEF04F00036013602360E2A0BEF04F083
:1008BC0001C002F000C001F0006A000E0E960E8816
:1008CC0002648BEF04F0F00E0214D8A476EF04F05F
:1008DC00023A01380F0B02260138F00B016E0E8420
:1008EC00D89002BE0BEF04F0013602360E2A02BE7F
:1008FC000BEF04F0013602360E2A02BE0BEF04F0A9
:10090C00013602360E2A0BEF04F001C002F0016A28
:10091C00000E0E860264BBEF04F0F00E0214D8A495
:10092C009AEF04F0023A0E84D89002BE0BEF04F05A
:10093C0002360E2A02BE0BEF04F002360E2A02BE5D
:10094C000BEF04F002360E2A0BEF04F0010E0C6EC6
:10095C0079DEBEEF04F0020E0C6E24DEBEEF04F066
:10096C00040E0C6E74DDBEEF04F0080E0C6E63DE2C
:02097C00120067
:10097E000501F96BFA6BF6C501F6F7C502F672DDE5
:10098E0000C0F8F5F6C501F6F7C502F6C9DD00C0E0
:10099E00FBF501C0FCF502C0FDF503C0FEF5010E2E
:1009AE000501F96F000EFA6F0201D9510501FA5DCA
:1009BE0004E10201D8510501F95D48E20E0E006E08
:1009CE00000E016EF9C504F0FAC505F006DEDA0E6A
:1009DE000024E96E020E0120EA6EEECF01F0EECF9A
:1009EE0002F0000E021802E1F85101182CE10E0E71
:1009FE00006E000E016EF9C504F0FAC505F0EDDDCE
:100A0E00DA0E0026020E0122020E0024E96E000EFE
:100A1E000120EA6EEECF01F0EECF02F0EECF03F042
:100A2E00EECF04F00450FE1908E10350FD1905E164
:100A3E000250FC1902E10150FB1905E1F9C500F065
:100A4E00FAC501F005D0F94BFA2BAED7006A016A50
:020A5E00120084
:100A60000501FC6BFD6BFE6BFF6BF6C501F6F7C570
:100A700002F6FFDC00C0FCF50050100803E2100E87
:100A80000501FC6F0501010EFF6FFA51FF5D4FE29A
:100A9000030E006E000E016EFFC504F0000E056E21
:100AA000A3DD0050F8250601016F01500501F92171
:100AB0000601026FDEDC00C0FEF50501FD6BFC5196
:100AC000FD5D33E2030E006E000E016EFFC504F003
:100AD000000E056E89DD0050F8250601016F0150FA
:100AE0000501F9210601026F0501FD51F6250601F8
:100AF000036F000E0501F7210601046FFEC505F620
:100B0000000E066FCEDC00520DE1000E0501FB1950
:100B100003E1FFC500F00CD0010EFB1903E1FDC598
:100B200000F006D00501FD2BCAD7FF2BAED7006A17
:020B30001200B1
:100B3200F6C501F0F7C502F00501FC6BFD6B000E76
:100B4200FB1902E1FA51000A1CE0FC51F825E96E9A
:100B5200FD51F921EA6E01C0E1FF02C0E2FFEECFD2
:100B6200E6FF01C0D9FF02C0DAFF000EDE1802E084
:100B7200FC4BFD2B014A022A010EFA5F000EFB5BC1
:040B8200DED71200A8
:100B8600F6C501F6F7C502F6020E0601036F97ECED
:100B960001F0700E0601016F000E026FF6C503F636
:080BA600F7C504F621DC120082
:100BAE000B800BAEE3EF05F0026A0AAEFF0E026E8B
:0C0BBE00016E006E0A360232FF0E1200BB
:100BCA00D80E0101B36F010EB46F0D0EB56F060E8C
:100BDA00B66FB20EB76F060EB86F000EB96F000E81
:100BEA00BA6FA80EAF6F060EB06F000EB16F000E8F
:100BFA00B26F9C0EBF6F060EC06F000EC16F000E63
:100C0A00C26F0F01218B900E226F98849892A4AA2A
:0A0C1A0003D01DCF00F0FBD712003D
:100C240000C008F00150006E016A026A036A0B6A90
:100C34000C6A016A026A036A960E036E0A6A00AEBF
:100C44002AEF06F0081E001E082AD8B4002A0A8ECD
:100C540000C001F008C000F0086A026A64DD1200F6
:100C6400025006180E6E086A096A0B6A035007647C
:100C740025EF07F006500A6E068E028E03500B6EA7
:100C84000750036E000E0B6475EF06F00B50075E01
:100C9400D8B416EF07F0070E0764E4EF06F0075E1A
:100CA40000C008F001C000F002C001F0026A074E63
:100CB40016EF07F00764B9EF06F0075E00C008F00E
:100CC40001C000F0016A074E16EF07F0076497EFC2
:100CD40006F0075E00C008F0006A074E16EF07F042
:100CE40007647EEF06F00AC002F005C001F004C0FC
:100CF40000F0086A42EF08F0030E076489EF06F07B
:100D0400075E08380F0B086E074E16EF07F0D890F1
:100D14000832074E16EF07F0D8900832074E16EF48
:100D240007F0D890083216EF07F0030E0764A8EF17
:100D340006F0075E08380F0B086E0038F00B082623
:100D440000380F0B006E074E16EF07F0D8900032F4
:100D54000832074E16EF07F0D89000320832074EDB
:100D640016EF07F0D8900032083216EF07F0030EA2
:100D74000764D0EF06F0075E08380F0B086E0038E2
:100D8400F00B082600380F0B006E0138F00B00261C
:100D940001380F0B016E074E16EF07F0D8900132A1
:100DA40000320832074E16EF07F0D89001320032B5
:100DB4000832074E16EF07F0D8900132003208329D
:100DC40016EF07F0030E076401EF07F0075E08381B
:100DD4000F0B086E0038F00B082600380F0B006E5E
:100DE4000138F00B002601380F0B016E0238F00BAE
:100DF400012602380F0B026E074E16EF07F0D8904B
:100E04000232013200320832074E16EF07F0D89052
:100E14000232013200320832074E16EF07F0D89042
:100E24000232013200320832096A000E0EAE0AEFB5
:100E340008F0081E001E011E021E082A00220122BC
:100E440002220AEF08F00750D8A42BEF07F042EF74
:100E540008F0096A02C00AF0028E068E0750035C8D
:100E6400076ED8B4FDEF07F0070E0764CBEF07F069
:100E7400075E0450096E0550046E0650056E066A3E
:100E8400074EFDEF07F0070E0764A0EF07F0075EBB
:100E94000450096E0550046E056A074EFDEF07F015
:100EA400070E07647EEF07F0075E0450096E046ABC
:100EB400074EFDEF07F0070E076465EF07F00AC061
:100EC40002F042EF08F0030E076470EF07F0075ECC
:100ED40009380F0B096E074EFDEF07F0D890093261
:100EE400074EFDEF07F0D8900932074EFDEF07F0EB
:100EF400D8900932FDEF07F0030E07648FEF07F077
:100F0400075E09380F0B096E0438F00B0926043804
:100F14000F0B046E074EFDEF07F0D8900432093230
:100F2400074EFDEF07F0D89004320932074EFDEF6B
:100F340007F0D89004320932FDEF07F0030E07647E
:100F4400B7EF07F0075E09380F0B096E0438F00B92
:100F5400092604380F0B046E0538F00B04260538F7
:100F64000F0B056E074EFDEF07F0D89005320432E3
:100F74000932074EFDEF07F0D890053204320932EA
:100F8400074EFDEF07F0D890053204320932FDEF29
:100F940007F0030E0764E8EF07F0075E09380F0B4C
:100FA400096E0438F00B092604380F0B046E05385B
:100FB400F00B042605380F0B056E0638F00B0526DA
:100FC40006380F0B066E074EFDEF07F0D890063279
:100FD400053204320932074EFDEF07F0D89006328D
:100FE400053204320932074EFDEF07F0D89006327D
:100FF400053204320932086A000E0EAE0AEF08F018
:10100400091E041E051E061E092A042205220622A4
:1010140009500826045000220550012206500222DD
:101024000EBE21EF08F0D8A030EF08F002320132F2
:1010340000320832033E30EF08F03CEF08F0D8B03D
:1010440036EF08F0000E081E001E011E021E082ABC
:101054000022012202220A7E36EF08F0010E0C6EF5
:10106400CEEC03F044EF08F0020E0C6ECEEC03F06D
:1010740044EF08F0040E0C6E2DEC02F044EF08F07F
:06108400000E0C6E1200CC
:10108A00086A096A100E0C6E0134083609360450D3
:10109A00085E0550D8A0053C095ED8B007D00450B8
:1010AA0008260550D8B0053C0926D89000360136E6
:0610BA000C2EEAD7120023
:1010C0000501DE6BDF6BE06BE16BE26BE36BE46B06
:1010D000E56BE66BE76BE86BE96BEA6BEB6BEC6B74
:1010E000ED6BEE6BEF6BF06BF16BF26BF36BDAC5E4
:1010F000F6F5DBC5F7F5160EF86F010EF96F070E62
:10110000FA6FFB6BADDC00C0DFF5DAC5F6F5DBC5C9
:10111000F7F5160EF86F010EF96F070EFA6F010E54
:10112000FB6F9EDC00C0E0F5DAC5F6F5DBC5F7F530
:101130002B0EF86F010EF96F060EFA6FFB6B90DC49
:1011400000C0E1F5DAC5F6F5DBC5F7F52B0EF86F53
:10115000010EF96F060EFA6F010EFB6F81DC00C005
:10116000E2F5000E001802E1100EE26FE30EF66FDA
:10117000050EF76FE051DA25F86F000EDB21F96FED
:10118000E051E25DFA6FFB6B000EFB5BD2DCE30E1D
:10119000F66F050EF76FBFEC04F000C0DEF5000E31
:1011A000016E0E0E046E000E056EF4EC02F0DA0E07
:1011B0000026020E01220A0E0024E96E000E012014
:1011C000EA6EDCC5E1FFDDC5E2FFEECFE6FFEECF64
:1011D000E6FFEECFE6FFEECFE6FF040EDC25F46F70
:1011E000000EDD21F56F0E0E006E000E016EDEC5E5
:1011F00004F0000E056EF4EC02F0DA0E0026020E8A
:101200000122060E0024E96E000E0120EA6EF4C5EC
:10121000E1FFF5C5E2FFEECFE6FFEECFE6FFEECF52
:10122000E6FFEECFE6FF080EDC25E16E000EDD21C5
:10123000E26EDFC5E6FF080EDC25006E000EDD2144
:10124000016E010E0024E16E000E0120E26EE1C588
:04125000E6FF1200A3
:10125400E80E0101B36F010EB46F0D0EB56F060EEB
:10126400B66FCC0EB76F050EB86F000EB96F000ED7
:10127400BA6FE40EAF6F030EB06F000EB16F000EC5
:10128400B26F240EBF6F030EC06F000EC16F000E4D
:10129400C26FAC8A900EAB6E948E949C9EAA03D0BF
:0812A400AECF00F0FBD71200F1
:1012AC00B2C5E1FFB3C5E2FFDAC5E6FFB0C500F099
:0A12BC00B1C501F048EC01F012008A
:0E12C600CCC200F0CDC201F048EC01F01200E5
:0E12D400ACC500F0ADC501F048EC01F0120011
:1012E200086A096A000E07620364F6EF09F0025009
:1012F20006180A6E075003267E0ED8A087EF09F063
:10130200035ED8B0FBEF09F08BEF09F0035ED8A0C3
:1013120000EF0AF0028E068E02C00EF001C00BF042
:1013220000C00DF000500402F4CF0CF00150050291
:10133200F4CF00F0F3CF08F00402F3500C26F4507F
:101342000822000E00220D500502F3500C26F45024
:101352000822000E002202500402F3500826F45024
:10136200002202500502016A000E0122F3500026FB
:10137200F45001220D500602F3500826F4500022C8
:10138200026A000E012202220B500602F3500026CE
:10139200F4500122000E02220E500602F3500126E2
:1013A200F450022202BEDEEF09F0083600360136A2
:1013B20002360306D8B400EF0AF0F1EF09F0D88044
:1013C200800E08640030000E002201220222D8A002
:1013D200F1EF09F0023201320032034AFBEF09F069
:1013E2000AAE029E000E03EF0AF0010E21EC03F09A
:1013F20003EF0AF0020E2DEC02F003EF0AF0040EE6
:0614020028EC03F01200CB
:10140800300E0501DA5D06E3DA51390803E3010E0F
:08141800006E01D0006A120011
:10142000C8C5CBF5C9C5CCF5CAC5CDF521D0CF0E01
:10143000AF6EAC940FDFD9D0670EAF6EAC940ADFFD
:10144000D4D0CF0EAF6EAC8405DFCFD0670EAF6EB9
:10145000AC8400DFCAD0440EAF6EAC84FBDEC5D0D6
:10146000220EAF6EAC84F6DEC0D0050E006EBFD08B
:10147000CBC5F6FFCCC5F7FFCDC5F8FF0900F5CF0A
:1014800001F00900F5CF02F00900F5CF03F00900E3
:10149000F5CF04F0000E006E041808E100500318A8
:1014A00005E1120E021802E10150C00AC0E0CBC5EE
:1014B000F6FFCCC5F7FFCDC5F8FF0900F5CF01F069
:1014C0000900F5CF02F00900F5CF03F00900F5CFD0
:1014D00004F0000E006E041808E10050031805E146
:1014E000250E021802E10150800AA6E0CBC5F6FFE6
:1014F000CCC5F7FFCDC5F8FF0900F5CF01F0090015
:10150000F5CF02F00900F5CF03F00900F5CF04F0A4
:10151000000E006E041808E10050031805E14B0EA0
:10152000021802E10150000A8CE0CBC5F6FFCCC5E1
:10153000F7FFCDC5F8FF0900F5CF01F00900F5CFA1
:1015400002F00900F5CF03F00900F5CF04F0000E1A
:10155000006E041808E10050031805E1960E021809
:1015600002E10150000AD8B471D7CBC5F6FFCCC553
:10157000F7FFCDC5F8FF0900F5CF01F00900F5CF61
:1015800002F00900F5CF03F00900F5CF04F0000EDA
:10159000006E041808E10050031805E1E10E02187E
:1015A00002E10150000AD8B456D7CBC5F6FFCCC52E
:1015B000F7FFCDC5F8FF0900F5CF01F00900F5CF21
:1015C00002F00900F5CF03F00900F5CF04F0045054
:1015D000000A08E10350010A05E10250C20A02E1D3
:1015E0000150000AD8B43CD740D7000E006E12005C
:1015F000090E0B6E1E0E0C6EE40E0D6E0D2EFED738
:0C1600000C2EFCD70B2EFAD700001200B5
:10160C00C8C5CBF5C9C5CCF5CAC5CDF521D0CF0E13
:10161C00AF6EAC9419DED9D0670EAF6EAC9414DEFD
:10162C00D4D0CF0EAF6EAC840FDECFD0670EAF6EC2
:10163C00AC840ADECAD0440EAF6EAC8405DEC5D0D5
:10164C00220EAF6EAC8400DEC0D0050E006EBFD093
:10165C00CBC5F6FFCCC5F7FFCDC5F8FF0900F5CF1C
:10166C0001F00900F5CF02F00900F5CF03F00900F5
:10167C00F5CF04F0000E006E041808E100500318BA
:10168C0005E1120E021802E10150C00AC0E0CBC500
:10169C00F6FFCCC5F7FFCDC5F8FF0900F5CF01F07B
:1016AC000900F5CF02F00900F5CF03F00900F5CFE2
:1016BC0004F0000E006E041808E10050031805E158
:1016CC00250E021802E10150800AA6E0CBC5F6FFF8
:1016DC00CCC5F7FFCDC5F8FF0900F5CF01F0090027
:1016EC00F5CF02F00900F5CF03F00900F5CF04F0B7
:1016FC00000E006E041808E10050031805E14B0EB3
:10170C00021802E10150000A8CE0CBC5F6FFCCC5F3
:10171C00F7FFCDC5F8FF0900F5CF01F00900F5CFB3
:10172C0002F00900F5CF03F00900F5CF04F0000E2C
:10173C00006E041808E10050031805E1960E02181B
:10174C0002E10150000AD8B471D7CBC5F6FFCCC565
:10175C00F7FFCDC5F8FF0900F5CF01F00900F5CF73
:10176C0002F00900F5CF03F00900F5CF04F0000EEC
:10177C00006E041808E10050031805E1E10E021890
:10178C0002E10150000AD8B456D7CBC5F6FFCCC540
:10179C00F7FFCDC5F8FF0900F5CF01F00900F5CF33
:1017AC0002F00900F5CF03F00900F5CF04F0045066
:1017BC00000A08E10350010A05E10250C20A02E1E5
:1017CC000150000AD8B43CD740D7000E006E12006E
:1017DC00300E0501C825006E000EC921016E000EE9
:1017EC00CA21026E1C0E0024F66E000E0120F76E4C
:1017FC00000E0220F86E0900F5CFD0F20900F5CFEB
:10180C00D1F20900F5CFD2F20900F5CFD3F2040ED4
:10181C00C825F66E000EC921F76E000ECA21F86EAF
:10182C000900F5CFC8F20900F5CFC9F20900F5CFD0
:0A183C00CAF20900F5CFCBF212004A
:1018460021D0CF0EAF6EAC9402DD6BD0670EAF6EBB
:10185600AC94FDDC66D0CF0EAF6EAC84F8DC61D004
:10186600670EAF6EAC84F3DC5CD0440EAF6EAC8416
:10187600EEDC57D0220EAF6EAC84E9DC52D0060EF9
:10188600006E59D0000E006E0501CB1908E100501C
:10189600CA1905E1120EC91902E1C851C00AD1E000
:1018A600000E006ECB1908E10050CA1905E1250E9D
:1018B600C91902E1C851800AC9E0000E006ECB19B1
:1018C60008E10050CA1905E14B0EC91902E1C851D9
:1018D600000AC1E0000E006ECB1908E10050CA19DB
:1018E60005E1960EC91902E1C851000AB9E0000ED9
:1018F600006ECB1908E10050CA1905E1E10EC919BD
:1019060002E1C851000AB1E0CB51000A08E1CA5110
:10191600010A05E1C951C20A02E1C851000AAAE05A
:10192600AED7E80E0101BB6F010EBC6F0D0EBD6F89
:08193600060EBE6F006A1200EC
:10193E0021D0CF0EAF6EAC9486DC6BD0670EAF6E3F
:10194E00AC9481DC66D0CF0EAF6EAC847CDC61D003
:10195E00670EAF6EAC8477DC5CD0440EAF6EAC8499
:10196E0072DC57D0220EAF6EAC846DDC52D0060EF8
:10197E00006E59D0000E006E0501CB1908E1005023
:10198E00CA1905E1120EC91902E1C851C00AD1E007
:10199E00000E006ECB1908E10050CA1905E1250EA4
:1019AE00C91902E1C851800AC9E0000E006ECB19B8
:1019BE0008E10050CA1905E14B0EC91902E1C851E0
:1019CE00000AC1E0000E006ECB1908E10050CA19E2
:1019DE0005E1960EC91902E1C851000AB9E0000EE0
:1019EE00006ECB1908E10050CA1905E1E10EC919C4
:1019FE0002E1C851000AB1E0CB51000A08E1CA5118
:101A0E00010A05E1C951C20A02E1C851000AAAE061
:101A1E00AED7E80E0101BB6F010EBC6F0D0EBD6F90
:081A2E00060EBE6F006A1200F3
:101A360024D0CF0EAF6EAC940ADC6ED0670EAF6EBC
:101A4600AC9405DC69D0CF0EAF6EAC8400DC64D0FC
:101A5600670EAF6EAC842AEC09F05ED0440EAF6E12
:101A6600AC842AEC09F058D0220EAF6EAC842AEC76
:101A760009F052D0060E006E59D0000E006E050118
:101A8600CB1908E10050CA1905E1120EC91902E185
:101A9600C851C00ACEE0000E006ECB1908E1005016
:101AA600CA1905E1250EC91902E1C851800AC6E026
:101AB600000E006ECB1908E10050CA1905E14B0E65
:101AC600C91902E1C851000ABEE0000E006ECB192A
:101AD60008E10050CA1905E1960EC91902E1C8517C
:101AE600000AB6E0000E006ECB1908E10050CA19D4
:101AF60005E1E10EC91902E1C851000AAFE0CB5178
:101B0600000A08E1CA51010A05E1C951C20A02E107
:101B1600C851000AA9E0AED7E80E0101BB6F010E5D
:0E1B2600BC6F0D0EBD6F060EBE6F006A120082
:101B3400C8C5F6FFC9C5F7FFCAC5F8FF0900F5CF48
:101B4400B0F50900F5CFB1F50900F5CFB2F50900FC
:101B5400F5CFB3F5040E0501C825F66E000EC921B4
:101B6400F76E000ECA21F86E0900F5CFCCF2090019
:101B7400F5CFCDF20900F5CFCEF20900F5CFCFF2C3
:101B8400080EC825F66E000EC921F76E000ECA2194
:101B9400F86E0900F5CFACF50900F5CFADF50900F5
:0C1BA400F5CFAEF50900F5CFAFF512004B
:101BB0003ED00F0120870D0E1F6F040E1E6F218572
:101BC000E5EC05F083D00F012087060E1F6F820E13
:101BD0001E6F2185E5EC05F079D00F012087030EFB
:101BE0001F6F400E1E6F2185E5EC05F06FD00F01D1
:101BF0002087010E1F6FA00E1E6F2185E5EC05F0FA
:101C000065D00F012087010E1F6F150E1E6F2185F5
:101C1000E5EC05F05BD00F0120871F6B8A0E1E6F6D
:101C20002185E5EC05F052D0060E006E59D0000E6D
:101C3000006E0501CB1908E10050CA1905E1120E2A
:101C4000C91902E1C851C00AB4E0000E006ECB19F8
:101C500008E10050CA1905E1250EC91902E1C85171
:101C6000800AB1E0000E006ECB1908E10050CA19DD
:101C700005E14B0EC91902E1C851000AAEE0000EA1
:101C8000006ECB1908E10050CA1905E1960EC9197A
:101C900002E1C851000AABE0000E006ECB1908E16A
:101CA0000050CA1905E1E10EC91902E1C851000A44
:101CB000A8E0CB51000A08E1CA51010A05E1C95167
:101CC000C20A02E1C851000AA6E0AED7D80E01014F
:101CD000BB6F010EBC6F0D0EBD6F060EBE6F006AAE
:021CE0001200F0
:061CE200050E006E120069
:101CE80057D00501C9B102D0929201D0928276D024
:101CF8000501C9B102D0929801D092886FD0050130
:101D0800C9B102D0969201D0968268D00501C9B1B6
:101D180002D0949601D0948661D00501C9B102D051
:101D2800949801D094885AD00501C9B102D0949AE8
:101D380001D0948A53D00501C9B102D0949401D03E
:101D480094844CD00501C9B102D0939201D09382FA
:101D580045D00501C9B102D0949E01D0948E3ED0E1
:101D68000501C9B102D0949C01D0948C37D00501EB
:101D7800C9B102D0949601D0948630D00501C9B17A
:101D880002D0949801D0948829D0010E006E28D0F2
:101D98000501C851000AA5E0C851010AA9E0C851C7
:101DA800020AADE0C851030AB1E0C851040AB5E01F
:101DB800C851050AB9E0C851060ABDE0C851070A6A
:101DC800C1E0C851080AC5E0C851090AC9E0C851AC
:101DD8000A0ACDE0C8510B0AD1E0D7D7000E006E31
:021DE8001200E7
:101DEA00520E0B6E2B0E0C6E000E0D6E0D2EFED7C4
:0C1DFA000C2EFCD70B2EFAD700001200B4
:101E0600C8C5D9FFC9C5DAFF000EDE180CE0C8C583
:101E1600E9FFC9C5EAFFEECFDAF556EC09F0050190
:101E2600C84BC92BEDD7CAC5DAF556EC09F00A0E30
:0A1E36000501DA6F56EC09F0120006
:101E40000B6A0C6A0A6A0350D8B46AEF0FF0028E6C
:101E50008E0E035E03BE32EF0FF0D8B432EF0FF0F8
:101E60006EEF0FF0036C080E035CD8A049EF0FF083
:101E7000036E013602C001F0026A080E035CD8A0AE
:101E800049EF0FF00136016A0350D8A4D89053EF00
:101E90000FF00350D8B453EF0FF0D8900232013254
:101EA000032E4DEF0FF00BBC01A060EF0FF0D8A098
:101EB00060EF0FF0012AD8B4022A02BE7DEF0FF0C6
:101EC0000AAE83EF0FF0021E011E012AD8B4022AC7
:101ED00083EF0FF0026A016A83EF0FF00B800BAE05
:101EE00087EF0FF0026A0AAE87EF0FF0FF0E026E67
:101EF000016E0A36023287EF0FF0010E0C6ED7EC3E
:101F000005F089EF0FF0000E0C6E89EF0FF0FF0E59
:0C1F10000C6E0150006E0250016E1200B9
:101F1C000501D06BD16BD26BD36BD46BD56BC8C5B1
:101F2C0000F0C9C501F0C84BC92B00C0E9FF01C0C6
:101F3C00EAFFEECFCAF5000ECB6F000ECB6F000E92
:101F4C00CB1902E1000ECA193BE0CAC5DAF504EC64
:101F5C000AF0005235E0D0C500F0D1C501F0D2C571
:101F6C0002F0D3C503F0000E046E000E056E200EB9
:101F7C00066E820E076E71EC09F000C0D6F501C03A
:101F8C00D7F502C0D8F503C0D9F5300ECA5D006E86
:101F9C00000ECB59016E12EC06F0D6C504F0D7C575
:101FAC0005F0D8C506F0D9C507F032EC06F000C034
:101FBC00D0F501C0D1F502C0D2F503C0D3F5AFD72F
:101FCC00000ECB1902E12E0ECA1955E1C8C500F05E
:101FDC00C9C501F0C84BC92B00C0E9FF01C0EAFF1D
:101FEC00EECFCAF5000ECB6F000ECB6F000ECB19E7
:101FFC0002E1000ECA193FE0CAC5DAF504EC0AF09A
:10200C00005239E0D0C500F0D1C501F0D2C502F0C4
:10201C00D3C503F0000E046E000E056E200E066E86
:10202C00820E076E71EC09F000C0D6F501C0D7F531
:10203C0002C0D8F503C0D9F5300ECA5D006E000E93
:10204C00CB59016E12EC06F0D6C504F0D7C505F0DD
:10205C00D8C506F0D9C507F032EC06F000C0D0F5B3
:10206C0001C0D1F502C0D2F503C0D3F5010ED45F87
:10207C00000ED55BABD7000ECB1902E1650ECA1969
:10208C0007E0000ECB1902E1450ECA1901E072D02F
:10209C00010ECC6F000ECD6FCE6BCF6BC8C5E9FFB8
:1020AC00C9C5EAFFEECFCAF5000ECB6F000ECB6FA1
:1020BC00C84BC92B000ECB1902E12B0ECA190DE12E
:1020CC00C8C5E9FFC9C5EAFFEECFCAF5000ECB6F54
:1020DC00000ECB6FC84BC92B16D0000ECB1902E1EA
:1020EC002D0ECA1910E1C8C5E9FFC9C5EAFFEECF2C
:1020FC00CAF5000ECB6F000ECB6FC84BC92BFF0E71
:10210C00CC6FFF0ECD6FCAC5DAF504EC0AF00052A5
:10211C0023E0CEC500F0CFC501F00A0E046E000E10
:10212C00056EF4EC02F0300ECA5D026E000ECB5957
:10213C00036E02500024CE6F03500120CF6FC8C530
:10214C00E9FFC9C5EAFFEECFCAF5000ECB6F000E52
:10215C00CB6FC84BC92BD7D7CEC500F0CFC501F07C
:10216C00CCC504F0CDC505F0F4EC02F00050D4273A
:10217C000150D523800E006E800ED519005C02E153
:10218C00D45100081FE2D0C500F0D1C501F0D2C572
:10219C0002F0D3C503F0000E046E000E056E200E87
:1021AC00066E820E076E71EC09F000C0D0F501C00E
:1021BC00D1F502C0D2F503C0D3F5010ED45F000EE9
:1021CC00D55BD8D7800ED519006E800E005C02E16D
:1021DC00000ED45D1DE2D0C500F0D1C501F0D2C512
:1021EC0002F0D3C503F0CD0E046ECC0E056E4C0E72
:1021FC00066E7B0E076E71EC09F000C0D0F501C0C5
:10220C00D1F502C0D2F503C0D3F5D44BD52BDAD718
:10221C00D0C500F0D1C501F0D2C502F0D3C503F092
:02222C0012009E
:10222E00C8C5E9FFC9C5EAFFEE500501CA1912E09B
:10223E00C8C500F0C9C501F0C84BC92B00C0E9FFE5
:10224E0001C0EAFFEECF00F0005203E1006A016A1E
:0E225E0005D0E6D7C8C500F0C9C501F01200D2
:10226C0057D00501C9B102D0929001D0928076D09E
:10227C000501C9B102D0949001D094806FD00501B2
:10228C00C9B102D0969001D0968068D00501C9B131
:10229C0002D0949601D0948661D00501C9B102D0C8
:1022AC00949801D094885AD00501C9B102D0949A5F
:1022BC0001D0948A53D00501C9B102D0949201D0B7
:1022CC0094824CD00501C9B102D0939001D0938077
:1022DC0045D00501C9B102D0949E01D0948E3ED058
:1022EC000501C9B102D0949C01D0948C37D0050162
:1022FC00C9B102D0949601D0948630D00501C9B1F1
:10230C0002D0949801D0948829D0010E006E28D068
:10231C000501C851000AA5E0C851010AA9E0C8513D
:10232C00020AADE0C851030AB1E0C851040AB5E095
:10233C00C851050AB9E0C851060ABDE0C851070AE0
:10234C00C1E0C851080AC5E0C851090AC9E0C85122
:10235C000A0ACDE0C8510B0AD1E0D7D7000E006EA7
:02236C0012005D
:10236E00C8C502F0C9C503F0CCC500F00501CC0705
:10237E00005209E002C0E1FF03C0E2FFCAC5E6FF5A
:10238E00024A032AF1D7C8C500F0C9C501F01200F0
:10239E000501CC6B050ECC5D0AE2CC51CA25E16E6F
:1023AE00000ECB21E26E200EE66ECC2BF3D7CC5175
:1023BE00CA25E16E000ECB21E26EE66ACC07CC5147
:1023CE00CA25CD6F000ECB21CE6F0A0E046E000E05
:1023DE00056EC8C500F0C9C501F045EC08F008C08F
:1023EE0000F009C001F0300E0026CDC5E1FFCEC5CC
:1023FE00E2FF00C0E6FF0A0E046E000E056EC8C5B1
:10240E0000F0C9C501F045EC08F000C0C8F501C0E8
:10241E00C9F5000E011802E1000E001801E102D00C
:06242E00CC07CDD712001F
:10243400000E016E000E011807E06AEC09F0000EB0
:10244400001802E063EC09F00101C35351E0000EEF
:102454003E1904E00501DA6B03EC00F00501AA6BF8
:10246400AB6B020EA91913E1A1C5E1FFA2C5E2FFFE
:102474009F0EE66E040EE66EA70EE66E050EE66E81
:102484009FC500F0A0C501F048EC01F01FD09F0EDD
:102494000501DA6F040EDB6F9F0EDC6F050EDD6F36
:1024A40060EC08F0020EA96FA1C5E1FFA2C5E2FF2E
:1024B4009F0EE66E040EE66EA70EE66E050EE66E41
:1024C4009FC500F0A0C501F048EC01F00101C36B09
:1024D40004019D6B9E6B9F6B9A6B9B6B9C6B000EB8
:1024E40001013E1905E0010E0501DA6F03EC00F06D
:1024F40004019B5338E0000E01013E1904E005017C
:10250400DA6B03EC00F00501AA6BAB6B9F0EDA6F7C
:10251400040EDB6F9F0EDC6F050EDD6F60EC08F0C0
:10252400A96BA1C5E1FFA2C5E2FF9F0EE66E040EF2
:10253400E66EA70EE66E050EE66E9FC500F0A0C51A
:1025440001F048EC01F004019D6B9E6B9F6B9A6B4C
:102554009B6B9C6B000E01013E1905E0010E050109
:10256400DA6F03EC00F004019A5339E0000E010124
:102574003E1904E00501DA6B03EC00F00501AA6BD7
:10258400AB6B9F0EDA6F040EDB6F9F0EDC6F050ED4
:10259400DD6F60EC08F0010EA96FA1C5E1FFA2C5D3
:1025A400E2FF9F0EE66E040EE66EA70EE66E050EC3
:1025B400E66E9FC500F0A0C501F048EC01F00401EF
:1025C4009D6B9E6B9F6B9A6B9B6B9C6B000E0101CA
:1025D4003E1905E0010E0501DA6F03EC00F012006C
:1025E4000501CC6BCD6BCE6BCF6BCCC500F0CDC5EC
:1025F40001F0CC4BCD2B0050C825026E0150C921EF
:10260400036ECEC500F0CFC501F0CE4BCF2B0050EA
:10261400CA25E96E0150CB21EA6E02C0E1FF03C076
:10262400E2FFEECFE6FF02C0E9FF03C0EAFFEE508F
:08263400000A01E0DAD71200F0
:10263C00C8C5E9FFC9C5EAFFEE500501CA1905E195
:10264C00C8C500F0C9C501F010D0C8C500F0C9C597
:10265C0001F0C84BC92B00C0E9FF01C0EAFFEECF67
:0C266C0000F00052E5E1006A016A120073
:1026780057D00501C9B102D0929401D0928476D086
:102688000501C9B102D0969601D096866FD0050192
:10269800C9B102D0969401D0968468D00501C9B119
:1026A80002D0949601D0948661D00501C9B102D0B8
:1026B800949801D094885AD00501C9B102D0949A4F
:1026C80001D0948A53D00501C9B102D0989001D0A5
:1026D80098804CD00501C9B102D0939401D093845D
:1026E80045D00501C9B102D0989401D098843ED054
:1026F8000501C9B102D0989201D0988237D005015E
:10270800C9B102D0949601D0948630D00501C9B1E0
:1027180002D0949801D0948829D0010E006E28D058
:102728000501C851000AA5E0C851010AA9E0C8512D
:10273800020AADE0C851030AB1E0C851040AB5E085
:10274800C851050AB9E0C851060ABDE0C851070AD0
:10275800C1E0C851080AC5E0C851090AC9E0C85112
:102768000A0ACDE0C8510B0AD1E0D7D7000E006E97
:0227780012004D
:10277A001ED0B5C5C8F5B6C5C9F5B7C5CAF506ECC4
:10278A000BF020D0B5C5C8F5B6C5C9F5B7C5CAF5A9
:10279A0010EC0AF017D0B5C5C8F5B6C5C9F5B7C566
:1027AA00CAF571EC0EF00ED0010E006E0BD00501C9
:1027BA00B451000ADEE0B451010AE4E0B451020A5D
:0627CA00EAE0F2D7120064
:1027D0002FD0B5C5C8F5B6C5C9F5B7C5CAF5B8C5D2
:1027E000CBF523EC0CF032D0B5C5C8F5B6C5C9F5AC
:1027F000B7C5CAF5B8C5CBF59FEC0CF027D0B5C569
:10280000C8F5B6C5C9F5B7C5CAF5B8C5CBF5D8EC96
:102810000DF01CD0B5C5C8F5B6C5C9F5B7C5CAF524
:10282000B8C5CBF51BEC0DF011D0010E006E0ED02B
:102830000501B451000ACDE0B451010AD5E0B4510C
:0E284000020ADDE0B451100AE5E0EFD7120005
:10284E00C40E0501C86F010EC96FB4C5CAF5B5C572
:10285E00CBF5C1DE04019C5302E0E5DDFBD7B4C528
:10286E00DAF5B5C5DBF59F0E0501DC6F050EDD6FE4
:10287E0060EC08F0B4C5C8F5B5C5C9F50D0ECA6F44
:10288E0003EC0FF0010E016E000E011815E0040EA0
:10289E000501A96FA1C5E1FFA2C5E2FFC40EE66E58
:1028AE00010EE66EA70EE66E050EE66E9FC500F0F3
:1028BE00A0C501F048EC01F004019A6B9B6B010E70
:1028CE009C6F0201C46BC56BC66BC76B010E050115
:0E28DE00AB6F04019C5302E0A6DDFBD7120095
:1028EC00CAC2E1FFCBC2E2FF010EE66EC8C200F025
:1028FC00C9C201F048EC01F0F8EC0AF0CAC2E1FFE1
:10290C00CBC2E2FFE66AC8C200F0C9C201F048ECD3
:10291C0001F0F8EC0AF0CAC2E1FFCBC2E2FF010EF3
:10292C00E66EC8C200F0C9C201F048EC01F0F5EC4B
:08293C000EF0F5EC0EF01200A4
:102944000501BC6BBD6BBE6BBF6BC06BC16BC26B57
:10295400C36BC46BC56BB4C5B8F5B5C5B9F5010E89
:10296400B425C86F000EB521C96F2C0ECA6F000EB6
:10297400CB6F5BDC00C0BAF501C0BBF5BC0EF66FD3
:10298400050EF76FB8C5F8F5B9C5F9F5B851005C8F
:10299400FA6FB9510158FB6F99EC05F0B6C5C6F54D
:1029A400B7C5C7F5BC0EC86F050EC96F8EEC0FF026
:1029B40020EC0FF0C6C5E1FFC7C5E2FF00C0E6FF8B
:1029C40001C0E6FFBC0EC86F050EC96FCA6BCB6BA6
:1029D4000A0ECC6FCADCB4C5C8F5B5C5C9F52C0E52
:1029E400CA6F2ADE00C0B8F501C0B9F5010E002493
:1029F400C86F000E0120C96F2C0ECA6F000ECB6F7A
:102A040014DC00C0BAF501C0BBF5BC0EF66F050EB0
:102A1400F76F020EB825026E000EB921036E02C0D4
:102A2400F8F503C0F9F50250005CFA6F0350015841
:102A3400FB6F99EC05F0020EB625C66F000EB721A8
:102A4400C76FBC0EC86F050EC96F8EEC0FF020EC7B
:102A54000FF0C6C5E1FFC7C5E2FF00C0E6FF01C035
:102A6400E6FFBC0EC86F050EC96FCA6BCB6B0A0EAE
:102A7400CC6F7BDCBAC5B8F5BBC5B9F5010EBA2578
:102A8400C86F000EBB21C96F2C0ECA6F000ECB6F2E
:102A940017EC11F000C0BAF501C0BBF5BC0EF66F1F
:102AA400050EF76F020EB825026E000EB921036EF3
:102AB40002C0F8F503C0F9F50250005CFA6F035048
:102AC4000158FB6F99EC05F0040EB625C66F000E95
:102AD400B721C76FBC0EC86F050EC96F8EEC0FF01F
:102AE40020EC0FF0C6C5E1FFC7C5E2FF00C0E6FF5A
:102AF40001C0E6FFBC0EC86F050EC96FCA6BCB6B75
:102B04000A0ECC6F32DCBAC5B8F5BBC5B9F5010EF7
:102B1400BA25C86F000EBB21C96F2C0ECA6F000EF8
:102B2400CB6F17EC11F000C0BAF501C0BBF5BC0EB9
:102B3400F66F050EF76F020EB825026E000EB9216E
:102B4400036E02C0F8F503C0F9F50250005CFA6F99
:102B540003500158FB6F99EC05F0060EB625C66FBD
:102B6400000EB721C76FBC0EC86F050EC96F8EEC7F
:102B74000FF020EC0FF0C6C5E1FFC7C5E2FF00C0AF
:102B8400E6FF01C0E6FFBC0EC86F050EC96FCA6B35
:102B9400CB6B0A0ECC6FB7EC11F0BAC5B8F5BBC558
:102BA400B9F5010EBA25C86F000EBB21C96F2C0EF2
:102BB400CA6F000ECB6F17EC11F000C0BAF501C05C
:102BC400BBF5BC0EF66F050EF76F020EB825026E4C
:102BD400000EB921036E02C0F8F503C0F9F50250E6
:102BE400005CFA6F03500158FB6F99EC05F0080E76
:102BF400B625C66F000EB721C76FBC0EC86F050E91
:102C0400C96F8EEC0FF020EC0FF0C6C5E1FFC7C50D
:102C1400E2FF00C0E6FF01C0E6FFBC0EC86F050E70
:102C2400C96FCA6BCB6B0A0ECC6FB7EC11F0BAC587
:102C3400B8F5BBC5B9F5010EBA25C86F000EBB21A6
:102C4400C96F4F0ECA6F000ECB6F17EC11F000C0A6
:102C5400BAF501C0BBF5BC0EF66F050EF76F020E98
:102C6400B825026E000EB921036E02C0F8F503C048
:102C7400F9F50250005CFA6F03500158FB6F99ECB0
:102C840005F00A0EB625C66F000EB721C76FBC0E3D
:102C9400C86F050EC96F8EEC0FF020EC0FF0C6C59F
:102CA400E1FFC7C5E2FF00C0E6FF01C0E6FF120076
:102CB400010ECD6E9E90F00ECF6E600ECE6E9D8096
:0E2CC400C00EF26E9D8A9E9AF28CF28E120065
:102CD20017D0B5C5C8F5B6C5C9F536EC11F01BD08D
:102CE200B5C5C8F5B6C5C9F574EC0EF014D0B5C5B6
:102CF200C8F5B6C5C9F5BFDC0ED0010E006E0BD00B
:102D02000501B451000AE5E0B451010AE9E0B45109
:082D1200020AEDE0F2D7120005
:102D1A0004019C6B0101C36B04019B6B9A6BB4C5E4
:102D2A00E4F2B5C5E5F2B6C5E6F2B7C5E7F2B8C54D
:102D3A00E0F2B9C5E1F2BAC5E2F2BBC5E3F23D0E73
:102D4A000601016F010E026F97EC02F000C0DCF27F
:102D5A0001C0DDF202C0DEF203C0DFF20201DA6B6B
:102D6A00DB6B010ED86F000ED96F04019D6B9E6B51
:102D7A009F6B9A6B9B6B010E9C6F9A6B9B6B9C6B08
:102D8A000201C46BC56BC66BC76B010E0501AB6F45
:102D9A00AB6B0201D46BD56BD66BD76B010E0501F9
:102DAA00AA6FAA6B000E01013E1905E0010E05018A
:082DBA00DA6F03EC00F01200D7
:102DC2000501BA6BBB6BB4C5BCF5B5C5BDF5800ECC
:102DD200B519006E800E005C02E1000EB45D0BE2DC
:102DE200010EBA6F000EBB6FB4510008BC6FB5C5BF
:102DF200BDF5000EBD57BCC5C8F5BDC5C9F5B6C504
:102E0200CAF5B7C5CBF5CFEC11F0060EB86F000EC0
:102E1200B96F000E006EB951005C02E1B8510008B2
:102E220019E2B851B625E16EB951B721E26E010E31
:102E3200B85D006E000EB959016E0050B625E96EFC
:102E42000150B721EA6EEECFE6FF010EB85F000E29
:102E5200B95BDFD7B6C5E1FFB7C5E2FF200EE66E6C
:102E6200BA51BB111AE0B86BB96BB851B625E96E0D
:102E7200B951B721EA6EEE50200A03E1B84BB92BE3
:102E8200F4D7010EB85F000EB95BB851B625E16EFA
:0C2E9200B951B721E26E2D0EE66E120061
:102E9E00B7C5C8F5B8C5C9F5B9C5CAF59AEC0DF0F0
:102EAE00B4C5C8F5B5C5C9F5B6C5CAF5EEEC0BF097
:022EBE00120000
:102EC0000900F5CFE6FF0006FBE10106F9E112007B
:102ED0000501AB533AE0C4C204F0C5C205F0C6C256
:102EE00006F0C7C207F0010E0201C425006E000EF5
:102EF000C521016E000EC621026E000EC721036EB1
:102F000000C0C4F201C0C5F202C0C6F203C0C7F2DD
:102F100007500501A65D08E10650A55D05E10550D5
:102F2000A45D02E10450A35D10E2AB6B0201C46B2F
:102F3000C56BC66BC76B9F0E04019D25E16E040E29
:102F40009E21E26EE66A010E9A6F0501AA533AE0ED
:102F5000D4C204F0D5C205F0D6C206F0D7C207F03D
:102F6000010E0201D425006E000ED521016E000E67
:102F7000D621026E000ED721036E00C0D4F201C02C
:102F8000D5F202C0D6F203C0D7F20750000808E11C
:102F90000650000805E10550000802E1045005084C
:102FA00011E20501AA6B0201D46BD56BD66BD76B0E
:102FB0009F0E04019D25E16E040E9E21E26EE66ADD
:062FC000010E9B6F1200E0
:102FC60004019A6B9B6B010E9C6F0201D46BD56B4F
:102FD600D66BD76B010E0501AA6F06010E51000ACA
:102FE60008E1000E04019E1902E1000E9D1901E19F
:102FF60013D004019F0E9D25E16E040E9E21E26E04
:103006000EC6E6FF010E9D25006E000E9E21016E86
:1030160000C09DF401C09EF4000E9E5D02E1C00E4C
:103026009D5D03E3010E0101C36F000E04019E19AD
:1030360002E19D51FF0A0AE1010E9D5D006E000E40
:0E3046009E59016E00C09DF401C09EF4120060
:103054001AEC12F0690E0501B46F000EB56F27EC7F
:1030640014F0700E0501B46F000EB56FA30EB66FA9
:10307400010EB76F65DCA3C1B4F5A4C1B5F53F0E6D
:10308400B66F010EB76F9BDE5D0E0601016F000E79
:10309400026F010E036F97EC01F03F0E0601016F02
:1030A400010E026F020E036F97EC01F0A5C1B4F597
:1030B400A6C1B5F53F0E0501B66F010EB76F7FDEF1
:1030C4002B0E0601016F000E026F010E036F97ECC9
:1030D40001F03F0E0601016F010E026F020E036F35
:1030E40097EC01F0A7C1B4F5A8C1B5F53F0E0501F1
:1030F400B66F010EB76F63DE1F0E0601016F000E7F
:10310400026F010E036F97EC01F03F0E0601016F91
:10311400010E026F020E036F97EC01F0A9C1B4F522
:10312400AAC1B5F53F0E0501B66F010EB76F47DEB4
:10313400370E0601016F000E026F010E036F97EC4C
:1031440001F03F0E0601016F010E026F020E036FC4
:1031540097EC01F0ABC1B4F5ACC1B5F53F0E050178
:10316400B66F010EB76F2BDE510E0601016F000E14
:10317400026F010E036F97EC01F03F0E0601016F21
:10318400010E026F020E036F97EC01F0ADC1B4F5AE
:10319400AEC1B5F53F0E0501B66F010EB76F0FDE78
:1031A400450E0601016F000E026F010E036F97ECCE
:1031B40001F03F0E0601016F010E026F020E036F54
:1031C40097EC01F0ED0E0601016F000E026F020E86
:0C31D400036F97EC01F0F5EC0EF0120018
:1031E00069DD090E0501B46F340EB56F000EB66FC0
:1031F0007F0EB76F340EB86F000EB96F50DE860EBB
:10320000B46F0B0EB56FF60EB66F050EB76FDC0E12
:10321000B86F050EB96F000EBA6FBB6F7EDD76EC2E
:1032200014F0290E0B6E960E0C6E7F0E0D6E0D2E89
:10323000FED70C2EFCD70B2EFAD7EA0E0501B46F81
:10324000000EB56F27EC14F0030E0501B46F010EEC
:10325000B56F27EC14F00C0E0501B46F010EB56FBD
:1032600027EC14F0520E0B6E2B0E0C6E000E0D6E32
:103270000D2EFED70C2EFCD70B2EFAD70000120015
:103280000501B46B070EB56F010EB66F22DD0501A7
:10329000B46B010EB56FB66B1CDD0501B46B8B0E04
:1032A000B56F340EB66F000EB76FBDEC13F0020EA3
:1032B0000501B46F000EB56FC20EB66F010EB76F89
:1032C000000EB86FE8EC13F0D40E0601016F000E8B
:0C32D000026F020E036F97EC01F0120079
:0E32DC0048EC1AF0CFDF7EDFB7DEFED7FFD75B
:1034900010EE1FF01F0E006E020E016EEA0EF66EA9
:0E34A000320EF76E000EF86E60EC17F01200A0
:0C32EA002D2D205A2076616C75653A008D
:0C32F6002D2D20592076616C75653A0082
:0E3302002D2D204E49522076616C75653A00E3
:0C3310002D2D20432076616C75653A007D
:0C331C002D2D20442076616C75653A0070
:0C3328002D2D20582076616C75653A0050
:0733340041544441544100E3
:10333B000000000000000000000000000000000082
:10334B000000000000000000000000000000000072
:10335B000000000000000000000000000000000062
:10336B000000000000000000000000000000000052
:10337B000000000000000000000000000000000042
:10338B000000000000000000000000000000000032
:04339B00000000002E
:10339F00202D2D2D2053797374656D20696E6974FE
:0633AF00202D2D2D200051
:0333B50041540080
:1033B8002D2D2D2D2D2D2D2D2D2D2D2D2D2D2D2D35
:0633C8002D2D2D2D2D001E
:0933CE0041544741494E3D3200D3
:0A33D70041545443534D443D32006D
:1033E1000000002B0000230000240000255C0026C3
:0533F1000000000000D7
:1033F6000000003D3F003F00003D00003A00000D88
:023406000000C4
:0134080000C3
:1034090004020D06F6010D06CA010D06A0010D06FE
:1034190092010D06BC010D06AE010D0666020D06F0
:1034290058020D0682020D0674020D064A020D06A7
:103439007E06000074060000C6030000E4060000D2
:10344900EE0600006A060000DA0600003C040000EF
:10345900DA030000F8060000D003000006030000AC
:013469000062
:01346A000061
:01346B000060
:01346C00005F
:01346D00005E
:10346E00000000000000000000000000000000004E
:01347E00004D
:0C347F00E8010D06CC050000E40300008D
:04348B0000C201007A
:020000040030CA
:0E00000015137F7CF98B91FFFFC0FFE0FF40DE
:00000001FF
